:400000000080002011000000A5140000A514000008B5044B1A6803F53F5302331A6001F05BFA00BFFA46004010B5054C237833B9044B13B10448AFF300800123237010BDAF
:40004000A081FF1F0000000098310000084B10B51BB108480849AFF300800848036803B910BD074B002BFBD0BDE81040184700BF0000000098310000A481FF1F0881FF1F7F
:400080000000000007490A780132074B83FB0203A3EBE27303EB4303D31ADBB20B7001234B707047BC81FF1F56555555094B1B78DBB2022B0CD1074A01239370D37801339F
:4000C000DBB2D370D378DBB2034AD25C034B1A70704700BFBC81FF1FE83600000C81FF1F10B586B062B602F08DFB01F095FC02F0A5F902F0A7FA002000F01AFB012000F003
:4001000017FB022000F014FB032000F011FB002000F092FA012000F08FFA022000F08CFA032000F089FA01F0A1FF01F0B3FF02F00BFC00F05FFE002000F0E6FB012000F08D
:40014000E3FB022000F0E0FB032000F0DDFB614802F078FE604B186803900023019302935E4802F0AFFE02F021FF5D4B5B7813F0FF0F1AD05A4C00236370207800F00100BC
:4001800002F06EFE2078C0F3400002F075FE2378DBB2012B01D100F0A3FE514B1B78DBB2022B02D1002001F07DF84D4B9B7813F0FF0F06D000224A4B9A704A4B187802F08E
:4001C000ABFE474B1B7813F0FF0F6CD10DF1160005A90DF1120200F01BFEBDF8160001B20029B8BF4942BDF814301AB2002AB8BF5242914229DB80238DF80C308DF80E3065
:40020000000A1B1A8DF80D3080F080008DF80F00BDF8123013F4004F01D1002200E0B422ADF8062013F4004F01D1002300E0B423ADF80A3000F0D2FBADF804009DF80D008E
:4002400000F0CCFBADF8080028E080228DF80D208DF80F201B0A83EA02008DF80C00D31A8DF80E30BDF8123013F4004F01D1002200E0B422ADF8042013F4004F01D100232A
:4002800000E0B423ADF8083000F0A8FBADF806009DF80E0000F0A2FBADF80A0003A801A900F0A2FB61E70E4B1B78DBB2012B7FF45CAF0DF1160005A90DF1120200F0A8FDD7
:4002C000BDF91600BDF91410BDF9122000F05EFE4BE700BF850000009C310000AD000000BC81FF1F0C81FF1F824204D38A4201D9084670471046704710B50C46032832D88F
:40030000DFE800F0020E1A26002002F089FA204602F038FA02F02AFA10F0010FFAD010BD002001F0E5FF204601F036FB01F028FB10F0010FFAD010BD002002F099F8204699
:4003400002F03CF802F02EF810F0010FFAD010BD002002F085F9204602F034F902F026F910F0010FFAD010BD10B50C46032832D8DFE800F0020E1A26012002F051FA2046B4
:4003800002F000FA02F0F2F910F0010FFAD010BD012001F0ADFF204601F0FEFA01F0F0FA10F0010FFAD010BD012002F061F8204602F004F801F0F6FF10F0010FFAD010BDF1
:4003C000012002F04DF9204602F0FCF802F0EEF810F0010FFAD010BD2DE9F04104460F4616461D46002040F23F113A46FFF77CFF804640F23F113246FFF776FF0746002009
:4004000040F2DF112A46FFF76FFF064640F2DF11BDF81820FFF768FF054620462A21FFF76BFF2046C8F30721FFF79EFF20465FFA88F1FFF799FF2046C7F30721FFF794FF3F
:400440002046F9B2FFF790FF20462B21FFF754FF2046C6F30721FFF787FF2046F1B2FFF783FF2046C5F30721FFF77EFF2046E9B2FFF77AFFBDE8F0812DE9F04F83B0054695
:400480008E4617461C46BDF834604FEA162AF6B2002040F23F117246FFF726FF804640F23F113A46FFF720FF8146002040F2DF112246FFF719FF044640F2DF11BDF83020FD
:4004C000FFF712FF07460090284641464A462346FFF782FF28462C21FFF70EFF032D00F28F80DFE805F00225486B012002F098F9002207E053009BB2434901F803A0013385
:40050000CE540132C8EB090B0BF1010B9345F1DC0AE0284600F0F8F94FEA4B0292B22846394900F087F901347B1CA342F1DC67E0012001F0DDFE002207E053009BB23349B8
:4005400001F803A00133CE540132C8EB090B0BF1010B9345F1DC0AE0284600F0D5F94FEA4B0292B22846294900F064F901347B1CA342F1DC44E0012001F07AFF002207E09F
:4005800053009BB2224901F803A00133CE540132C8EB090B0BF1010B9345F1DC0AE0284600F0B2F94FEA4B0292B22846184900F041F901347B1CA342F1DC21E0012002F04F
:4005C0004FF8002207E053009BB2124901F803A00133CE540132C8EB090B0BF1010B9345F1DC0AE0284600F08FF94FEA4B0292B22846084900F01EF901347B1CA342F1DC39
:4006000003B0BDE8F08F00BFB094FF1F3092FF1FB085FF1FB08FFF1F00B583B040F2DF1300930191002140F23F120B46FFF724FF03B05DF804FB00BF2DE9F041074602F0A7
:4006400057FC032F2AD8DFE807F0020C1620002002F0F2F80A2001F0F3FA012002F0ECF81CE0002001F050FE0A2001F0E9FA012001F04AFE12E0002001F0EEFE0A2001F039
:40068000DFFA012001F0E8FE08E0002001F0F4FF0A2001F0D5FA012001F0EEFF38460121FFF72AFE782001F0CBFA00251BE06B1C124A12F805800235D45C38464146FFF794
:4006C0001BFE08E06E1C38460C4B595DFFF74CFE013CE4B23546002CF4D1B8F1110F02D1782001F0ADFA682DE1D902F05FFC38460021FFF791FFBDE8F08100BFA031000032
:400700000022014B1A707047C081FF1F0022014B5A707047C081FF1F0022014B9A707047C081FF1F0022014BDA707047C081FF1F10B5032872D8DFE800F0021E3A5601203F
:40074000014641F6FF724FF4804301F0D7FF344C207101F037FA60710121FE22052301F04BFA6079002146F2445201F059FA2D4802F088F810BD0120014641F6FF724FF406
:40078000804301F0C3F8264CA07101F01BFAE0710121FE22052301F02FFAE079002146F2414201F03DFA204801F0D4FD10BD0120014641F6FF724FF4804301F065FE184C4A
:4007C000207201F0FFF960720121FE22052301F013FA607A002146F24A5201F021FA134801F08CFE10BD0120014641F6FF724FF4804301F09FFE0A4CA07201F0E3F9E0729B
:400800000121FE22052301F0F7F9E07A002146F2424201F005FA064801F054FF10BD00BFC081FF1F010700000D070000190700002507000070B50C46032862D8DFE800F0CE
:40084000021A324A2F4D01262E7068791146FE22052301F0D1F96879A1B246F2445201F0DFF92879697901F065F92879314601F019F970BD234D01266E70E8791146FE2232
:40088000052301F0B9F9E879A1B246F2414201F0C7F9A879E97901F04DF9A879314601F001F970BD174D0126AE70687A1146FE22052301F0A1F9687AA1B246F24A5201F034
:4008C000AFF9287A697A01F035F9287A314601F0E9F870BD0B4D0126EE70E87A1146FE22052301F089F9E87AA1B246F2424201F097F9A87AE97A01F01DF9A87A314601F03B
:40090000D1F870BDC081FF1F00B583B000238DF807308DF8063003285AD8DFE800F002182E442D4B1B7813F0FF0F51D02A4B18790DF107010DF1060201F008F99DF8063034
:4009400013F0030FF2D10022234B1A7040E0224B5B7813F0FF0F3BD01F4B98790DF107010DF1060201F0F2F89DF8063013F0030FF2D10022184B5A702AE0174B9B7813F033
:40098000FF0F25D0144B187A0DF107010DF1060201F0DCF89DF8063013F0030FF2D100220D4B9A7014E00C4BDB7813F0FF0F0FD0094B987A0DF107010DF1060201F0C6F89C
:4009C0009DF8063013F0030FF2D10022024BDA7003B05DF804FB00BFC081FF1F014B33F8100070470C3200002DE9F04F97B007460E4600242FE036F8140000F0D5F98046C4
:400A000016AB03EB840545F8100C36F8140000F0DDF945F8200CB8F1000FD4BF0023012345F8403C3B5DC3EB03135B011B12C3F5F07345F8303CE5B240F2DF130093284604
:400A4000002140F23F120B46FFF7C6FC28462C21FFF752FC0134032CCDDD012001F0E0FE012001F045FC012001F002FD012001F0F7FD4FF00009AB4B0593DFF8C482AA4B7A
:400A80000493AA4FAA4B0393AA4EAB4B0293AB4D77E1129BABB90E9B002B05DA0A9B4B45CCBF0023012306E00A9BC3F5F0734B45D4BF002301230BB1002416E04FF4A07440
:400AC00013E0A9F1F004640003EB830189010E9A04FB02145B0094FBF3F4002C00DA0024B4F5A07F01DD4FF4A074069B23B14FF0000A4FF0FF0B03E04FF0FF0A4FF0000BE4
:400B00000020FFF701FF002306E005F813B005EB430282F801B00133A342F6DB06E005F814A005EB440383F801A00134B4F5A07FF5DB002029464FF42072FFF77BFE139B54
:400B4000ABB90F9B002B05DA0B9B4B45CCBF0023012306E00B9BC3F5F0734B45D4BF002301230BB1002416E04FF4A07413E0A9F1F004640003EB830189010F9A04FB021478
:400B80005B0094FBF3F4002C00DA0024B4F5A07F01DD4FF4A074079B23B14FF0000A4FF0FF0B03E04FF0FF0A4FF0000B0120FFF7ABFE002306E006F813B006EB430282F886
:400BC00001B00133A342F6DB06E006F814A006EB440383F801A00134B4F5A07FF5DB012031464FF42072FFF725FE149BABB9109B002B05DA0C9B4B45CCBF0023012306E064
:400C00000C9BC3F5F0734B45D4BF002301230BB1002416E04FF4A07413E0A9F1F004640003EB83018901109A04FB02145B0094FBF3F4002C00DA0024B4F5A07F01DD4FF4D7
:400C4000A074089B23B14FF0000A4FF0FF0B03E04FF0FF0A4FF0000B0220FFF755FE002306E007F813B007EB430282F801B00133A342F6DB06E007F814A007EB440383F813
:400C800001A00134B4F5A07FF5DB022039464FF42072FFF7CFFD159BABB9119B002B05DA0D9B4B45CCBF0023012306E00D9BC3F5F0734B45D4BF002301230BB1002416E0D1
:400CC0004FF4A07413E0A9F1F004640003EB83018901119A04FB02145B0094FBF3F4002C00DA0024B4F5A07F01DD4FF4A074099B23B14FF0000A4FF0FF0B03E04FF0FF0ACF
:400D00004FF0000B0320FFF7FFFD002306E008F813B008EB430282F801B00133A342F6DB17E000BFB08AFF1F3088FF1FB085FF1F3097FF1F3092FF1F308DFF1FB094FF1F02
:400D4000B08FFF1F08F814A008EB440383F801A00134B4F5A07FF5DB032041464FF42072FFF768FD09F101094346DDF8148005933B46049F04933346039E03932B46029D5C
:400D80000293B9F5F07FFFF684AE0020FFF7BCFD0120FFF7B9FD0220FFF7B6FD0320FFF7B3FD17B0BDE8F08FC308064AA2FB03239B084FF4B47202FB130080B2024B33F99A
:400DC00010007047176CC1160C3400005A30074A80FB0223C218C317C3EB22234FF4B47202FB1303024A32F913007047B7600BB60C34000008B56820002101F01FFF6B209B
:400E000001F0AEFF012001F0ABFF01F08DFF08BDF0B583B007460E4615466820002101F00DFF3B2001F09CFF6820012101F046FF002407E0012001F0BFFF02AB234403F8EB
:400E4000080C0134042CF5DD002001F0B5FF044601F06AFF9DF800209DF8013043EA02233B809DF802209DF8033043EA022333809DF8043044EA03242C8003B0F0BD00BFC9
:400E8000884203DB904202DD104670470846704781420EDD38B50D46044602F0D5F8291B013190FBF1F303FB1100204480B200B238BD00B2704700BF00280CDD10B5044657
:400EC00002F0C2F86300013390FBF3F202FB1300001B80B202E0002000B2704700B210BDF0B583B0002405E020460021FFF794FB0134E4B2032CF7D9002535E000204FF4A4
:400F00009D71FFF7C5FF064600204FF4ED71FFF7BFFF4FEA061CDFF870E063001F19BF002A01511B090139440EEB01072EF801C0010179800021B980F9803E817881B1B25D
:400F400083B20A1D181D80B200904FF6FF700190284692B2FFF790FA0134E4B200E00024132CCBD90135EDB2032DF8D9064B0022A3F8C023A3F8C223A3F8C423012283F88E
:400F8000C62303B0F0BD00BFCC81FF1F2DE9F04F8BB0089009911446BF4B93F8C6330BB9FFF79EFFBC4AB2F9C0330898C31A83EAE371A1EBE371B2F9C233099DEB1A002B85
:400FC000B8BF5B420B440794B2F9C413611A0029B8BF49420B440693A2F8C003A2F8C253A2F8C443002303934EE1039A9046AB4B9B5C0BB1099900E00899A84B434493F909
:40100000042002FB01F25213049293F90830079A03FB02F35B1305934FF0000B2CE15C46069BB3F5FA6F16DD4FF4A070FFF744FF4FEA4B0303EB0B05AD004FEA0812C8EBE1
:4010400002031B012B44944D1D44A8804FF4A070FFF732FFE88063001A1992004FEA0811C8EB01031B0113448B4A1A44938804990B449BB29380D1880598014489B2D1808F
:401080001BB2C3EB03131846002B01DA03F10F00C0F30F1004EB44029200C8EB08131B0113447D4A134498800BB2C3EB03139946002B01DA03F10F09C9F30F19DFF8D8A182
:4010C00065002544AD004FEA0813C8EB03031B011D440AEB050700B26FF07F018022FFF7CFFE0646B8800FFA89F06FF07F018022FFF7C6FEF8803AF80520324492B22AF808
:4011000005207B8803449BB27B8012F4004F14D0554662001719BF004FEA0811C8EB010212013A44A91800272AF80270764206EBD676C6F34F068E8018E012B241F2B031DD
:401140008A4213DD544D62001719BF004FEA0811C8EB010212013A44A91841F2B037AF52764206EBD676C6F34F068E8013F4004F13D06300191989004FEA0812C8EB0203D9
:401180001B010B44444A134400225A80404200EBD070C0F34F00D88018E01BB241F6B052934213DD6300191989004FEA0812C8EB02031B010B44384A134441F6B0525A8099
:4011C000404200EBD070C0F34F00D88032486300191989004FEA0812C8EB02031B010B44C218C35EB2F90270C7F30F1711890AB2C3F30F100290B2EB231F0DD104EB440233
:401200009200C8EB08131B011344254A1344B3F902203BB29A422BD089B2DFF87CA04FEA440909EB0406B6004FEA0815C8EB05031B011E44564473890A1D181D80B20090D8
:4012400000200190039892B2FFF716F9BDF80810BBB20A1D181D80B200904FF6FF700190039892B2FFF708F9BDF80830338177810BF101035FFA83FBBBF1130F7FF6CFAE36
:40128000039B0133DBB20393039B032B7FF6ADAE0BB0BDE8F08F00BFCC81FF1FDC360000D481FF1F10B582B058B1F5E02046FFF72BFB204643F62A21FFF7AEF90134E4B266
:4012C00000E00024032CF1D900240EE02046FFF71BFB3B230093002301932046194640F23F12FFF7C9F80134E4B2032CEED9002411E02046FFF708FB40F2A313009342F6DE
:40130000596301932046282140F217127823FFF7B3F80134E4B2032CEBD900240FE02046FFF7F2FAB323009340F2B34301932046282163227823FFF79FF80134E4B2032C83
:40134000EDD9002410E02046FFF7DEFAB323009340F2B34301932046DC2140F217127823FFF78AF80134E4B2032CECD900240FE02046FFF7C9FAEF23009347F29E730193F5
:4013800020466421DB22B423FFF776F80134E4B2032CEDD9002411E02046FFF7B5FA40F2A313009347F29E73019320466421DB224FF4B473FFF760F80134E4B2032CEBD973
:4013C000002410E02046FFF79FFA40F26713009347F29E730193204628216322F023FFF74BF80134E4B2032CECD9002411E02046FFF78AFA40F26713009347F29E73019376
:401400002046DC2140F21712F023FFF735F80134E4B2032CEBD9002410E02046FFF774FA40F2671300934FF6FF73019320466421DB22F023FFF720F80134E4B2032CECD9CA
:40144000002410E02046FFF75FFA40F22B1300934CF6FF730193204664219F22F023FFF70BF80134E4B2032CECD9002411E02046FFF74AFA40F2671300934CF6FF730193A5
:401480002046A021DB224FF49673FEF7F5FF0134E4B2032CEBD903E000200146FFF7BCF802B010BDFEE700BF08B5094B1A681044084BC31A802B02DC054B186005E001F0C0
:4014C00083FD0C2303604FF0FF32104608BD00BF1081FF1FD899FF1F08B5104E104D16E029686B68AC68002204E051F8040B43F8040B0432A242F8D1E868002203E000216B
:4015000043F8041B04328242F9D11035013E002EE6D101F05FFDFEF7E3FDFEE7010000009438000008B5134A134B1A60134A136843F40073136000230AE0032B03D8104AF9
:4015400052F8231000E00F490F4A42F8231001332F2BF2D90D4B1A780D4B1A700A4A0D4B1A6000F011F900F083FA00220A4B1A6008BD00BF0004FA050CED00E014ED00E00C
:4015800000000000A51400000080FF1FBC7600400481FF1F08ED00E00081FF1FFEE700BFF0B40022174611E050F82760F3B226F0FF0608E001EB420511F812406D78A555AF
:4015C0000132013BDBB2002BF4D10137232FEBD9F0BC70470A4B1B78DBB203F00701094A11701B09013213702022074B1A70022203F693131A704422A3F28A231A707047DC
:40160000CF0100496E5800406D51004008B50A46002101F010FD08BD08B501F001FD08BD38B500243D4B1C80502202331A7002331C8058233A4A13700232148002321370F3
:40164000023214800232137002321480023213700122344B1A80182202331A704EF65F2202331A80192502331D70312202331A801B2202331A702C482C490422FFF7CCFFB5
:4016800002222B4B1A7008224FF040231A70032103F500731970274B1B78DBB226490B70264B1A8041F25122023B1A800CE0244B1B7803F0010343EA440404F003044FF4FC
:4016C000F07000F0C5F9013D0DB1032CEFD115B90320FFF763FF1B4B4FF480721A8007221A70002218490A704820023108701A700222033B1A7004220A331A7003F297338E
:401700001A78FF221A70114A137843F001031370013A137843F08003137038BD80400040864000409440004000410040180B00480043004008010049A14600402242004032
:40174000254200400440004006400040A1430040012807D8044B53F820201844017A13780B431370704700BFE8370000012808D8044B53F820201844017A137823EA010394
:4017800013707047E837000070B572B6444A137843F00403137000240AE0424963001A1952000A44D068118AFFF730FF0134E4B20C2CF2D9002410E03A49A3001A19520059
:4017C0000A4452F85C0F23445B000B445168B3F86420FFF721FF0134E4B2032CECD94FF090403149FFF7DCFE0A24304B1C7030480421FFF70BFF2F482F490422FFF70CFFD7
:401800002E482F490422FFF707FF2E482E490422FFF702FF2D4A137843F0020313701032137843F002031370294D2B7843F040032B70A2F58632513A137843F010031370F1
:40184000244825490822FFF7E7FE244824492246FFF7E2FE234824490822FFF7DDFE234823492246FFF7D8FE224823492246FFF7D3FE224A137843F008031370204E012444
:401880003470FFF7CDFE812333701E4B1C70FFF7A1FE1D4829460E22FFF7BEFE70BD00BFE8460040E8370000900000488358004000760040087600401C0B00481076004027
:4018C000200B004818760040240B004803500140A043004002510040E40A004820510040EC0A004832510040F80A004850510040000B0048605100400C0B0048224300408B
:401900000048004004000840B0430040F0B583B086460F4616461D460B4C01232370002200920192184671463A4600F027F9207831462A4600F0E4F82078022100F0CEF832
:40194000207803B0F0BD00BF1481FF1F08B500F087F80A4A137843F0200313700432137843F010031370033A137843F01003137000F07AF800F05EF808BD00BF916400409D
:40198000014B1878704700BF65640040014B1878704700BF62640040034B1B7813F0040FFAD0024B18707047656400404164004008B501E00A4B1B780A4B1B7813F0200F99
:4019C000F8D100F04DF8084B1A7842F001021A701A7802F0FE021A7000F046F808BD00BF51640040626400409164004008B50F22074B1A70FFF7DCFFFFF7C2FFFFF7C6FF48
:401A00000422044B1A700022033B1A7008BD00BF816400408564004008B5054B1B7823B9FFF7E4FF0122024B1A70FFF78FFF08BD9485FF1F054A137843F002031370103245
:401A4000137843F002031370704700BFA24300400230800803D000BF01380046FCD17047EFF3108072B6704780F31088704700BF0B4A7F2313708021517007E0DA0002F1D4
:401A8000804202F5F042013BDBB21370002BF5D1DB0003F1804303F5F04300221A7070471881FF1F172815D831B103010A495A5C42F020025A5405E0030107495A5C02F029
:401AC000DF025A540001044A835C43F00103835400207047012070471070004017280BD80001064A835C03F0F10301F0070143EA41018154002070470120704710700040C7
:401B000041F6FF73994201D14FF4005141F6FF739A4201D14FF40052172808D8C00000F1804000F5EC408180C280002070470120704700BF172805D8034B03EB0010417252
:401B400000207047012070471070004017280FD831B1094B03EB00135B7A03F07F030B7042B1054B03EB0010037A13700020704701207047002070471070004017281BD81B
:401B800010B4C00000F1804404F5EC44D201D2B201F07F01114321709DF804201201D2B203F00F03134363709DF8083003F00F03A3700020E07001E0012070475DF8044BE6
:401BC000704700BF10B5FFF74BFF0A4B5B78182B0BD9084A1478013B5370E30003F1804303F5F0431B78137000E0FF24FFF73CFF204610BD1881FF1F10F0800F0CD111F4D4
:401C0000704F0BD1C00000F1804000F5F04001808270C37000207047012070470120704710F0800F08D1C00000F1804000F5F0408180C280002070470120704701BE7047E0
:401C400010B5044605E0084B1868FFF701FFA4F50044B4F5004FF6D8034B586800FB04F0FFF7F6FE10BD00BF2081FF1F08B5034B1B7A03FB00F0FFF7EBFE08BD2081FF1FE1
:401C800070B504460E46074B1D681F2802D90020FFF7D4FF04F01F04103455F8240045F8246070BD08ED00E038B504460D46072902D90020FFF7C2FF1F2C02D90020FFF748
:401CC000BDFF04F01F0000F1604000F564406D01EDB2057038BD00BF10B59DF80840012C4AD10138092826D8DFE800F00525250525250D15251D0F2B02D9214800781BE0B9
:401D00002048007818E00F2B02D91F48007813E01E48007810E00F2B02D91D4800780BE01C48007808E00F2B02D91B48007803E01A48007800E0002040B201EB401101FB9D
:401D400002F1C90B8AB20D2B0BD8C3F10E0289B211418AB2124901EB8401013301F8023C05E00F4B03EB84030F2103F8021C013C0B4B23F8242010BD0020FFF75FFF10BD84
:401D8000180100491C010049190100491D0100491A0100491E0100491B0100491F0100499885FF1FF8B50746FFF75AFE06460D4D2B7843F003032B700B4C237843F003032C
:401DC00023700A4B1F700320FFF750FF2B7803F0FC032B70237803F0FC0323703046FFF743FEF8BDF8460040F94600409258004038B50022314B1A7101285DD13422304BED
:401E00001A70042202331A70062201331A70002401331C7001331C703F2201331A7002331C7001331C7001331C7001250A331D70502203F527631A700A2201331A702C22A3
:401E400001331A7001331C70442203331A70482201331A7001331D7002331D70112201331A70192201331A70972201331A705220FFF798FF5822134B1A7001331C7005226A
:401E800005331A70022201331A7001331C7001331C70204600F018F943F233320A4B1A601620294600F034F95C20294600F0B4F91D200649FFF7E4FE38BD00BF9885FF1F91
:401EC000004E004094580040B099FF1FA5200000F0B583B0284D01272F70284E00247471102000F003F9102000F084F91D200721FFF7DAFE0422224B1A7001331C70073366
:401F00001C70204A137843F0180313701E4B1C7003F2F5231C7001331C700A22A3F209331A7001331C7002331C705B2205331A705E2201331A7004331C701422A3F68C233B
:401F40001A700097022048F6F0514FF400421023FFF7C2FE2B7806EB830313F8022C0B4B1A702B78013B36F82320094B1A802878FFF73EFF03B0F0BD3081FF1F9885FF1F83
:401F800096580040075B0040935800400E4E00400C4E004070B5FFF763FD06462A4B1B782A4B1A7842F001021A701A7842F010021A7010331A7842F001021A701A7842F0A3
:401FC00010021A70224D2B7843F002032B70214C237843F0020323701F4A137843F0030313700320FFF742FE2B7803F0FD032B70237803F0FD032370184A137843F0060309
:4020000013707A22164B1A70164A137843F0010313701032137843F0010313700F3A137843F0010313701032137843F0010313704FF000530C4A1360A2F5C0721360304648
:40204000FFF712FD70BD00BF3081FF1FAA430040F8460040F9460040915800407758004082580040A143004080E200E008B5084B9B794BB9064BDB7913F0FF0F01D1FFF718
:4020800027FF0122024B9A71FFF784FF08BD00BF9885FF1F024A137843F0010313707047004E0040704700BF10B5002404E02046FFF75CFB0134E4B2012CF8D9FF22014B45
:4020C0001A7010BD3181FF1F10B50446FFF7ECFF2046FFF73DFB014B1C7010BD3181FF1F014B188880B2704780400040034B1A7800F0F80010431870704700BF82400040D0
:40210000024B187800F00700704700BF8240004070B505460E46FFF7F3FF0446FFF7E0FF854256D02B4B1B7803F0010294B900B185B938B9284B1D80284A137803F0BF03AD
:40214000137070BD254A137843F040031370224B1D8070BD22B3002321490B7001240F310C7004310B700C390B7803F07F030B701A4B1B7813F0080F00D08DB9194B18803B
:402180000721013B1970164B1B7813F0010FFAD110490B7803F0FE030B700021104B19700C4B1B7813F0010F0DD00E4B1D800EB1032200E001220A4B1A70094B1B7813F090
:4021C000010FFAD170BD044B1D8002490B7813430B7070BDA243004080400040824000400140004002400040014B188880B2704700410040034B1A7800F0F80010431870FC
:40220000704700BF02410040024B187800F00700704700BF0241004070B505460E46FFF7F3FF0446FFF7E0FF854256D02B4B1B7803F0010294B900B185B938B9284B1D80E4
:40224000284A137803F0BF03137070BD254A137843F040031370224B1D8070BD22B3002321490B70012413310C7004390B7008390B7803F07F030B701A4B1B7813F0080F92
:4022800000D08DB9194B18800721013B1970164B1B7813F0010FFAD110490B7803F0FE030B700021104B19700C4B1B7813F0010F0DD00E4B1D800EB1032200E001220A4BF1
:4022C0001A70094B1B7813F0010FFAD170BD044B1D8002490B7813430B7070BDA143004000410040024100400140004002400040044A137803F0DF03400100F02000184325
:402300001070704700510040044A137803F0BF03800100F0400018431070704700510040014B1B689864704708ED00E04001C0B2014B1870704700BF02E400E00422014BE7
:402340001A60704700E100E00422014B1A60704780E100E010B50446FFF7F6FF2046FFF7DFFF0720FFF7E2FFFFF7E8FF10BD00BF08B5FFF775FB0A4A137843F02003137011
:40238000023A137843F0100313700132137843F010031370FFF768FB00F0BEF808BD00BF9A650040014B1878704700BF68650040014B1878704700BF69650040034B1B78A4
:4023C00013F0040FFAD0024B18707047686500404A65004008B501E00A4B1B780A4B1B7813F0200FF8D1FFF73BFB084B1A7842F001021A701A7802F0FE021A70FFF734FB09
:4024000008BD00BF5A650040696500409A65004008B50F22074B1A70FFF7DCFFFFF7C2FFFFF7C6FF0422044B1A70002201331A7008BD00BF8A6500408865004008B5054BF3
:402440001B7823B9FFF7E4FF0122024B1A70FFF78FFF08BDA085FF1F044A137803F0BF03800100F0400018431070704750510040044A137803F0DF03400100F02000184382
:402480001070704750510040F0B583B084468E4617461E460B4C022525700023009301932846614672462B46FFF768FB207839463246FFF725FB20782946FFF70FFB207895
:4024C00003B0F0BD3281FF1F014B1B68D864704708ED00E04001C0B2014B1870704700BF03E400E00822014B1A60704700E100E00822014B1A60704780E100E010B50446F1
:40250000FFF7F6FF2046FFF7DFFF0720FFF7E2FFFFF7E8FF10BD00BF054A137843F0040313701032137843F004031370704700BFA2430040F0B583B086460F4616461D469B
:402540000B4C03232370002200920192184671463A46FFF713FB207831462A46FFF7D0FA20780221FFF7BAFA207803B0F0BD00BF3381FF1F08B5FFF773FA0B4A137843F00B
:402580002003137002F58172137843F010031370A2F58072137843F010031370FFF764FA00F09EF808BD00BF94640040014B1878704700BF66650040014B1878704700BF15
:4025C00066640040034B1B7813F0040FFAD0024B18707047666500404264004008B501E00A4B1B780A4B1B7813F0200FF8D1FFF737FA084B1A7842F001021A701A7802F0DB
:40260000FE021A70FFF730FA08BD00BF52640040666400409264004008B50F22074B1A70FFF7DCFFFFF7C2FFFFF7C6FF0422044B1A700022A3F580731A7008BD8464004006
:402640008665004008B5054B1B7823B9FFF7E4FF0122024B1A70FFF78DFF08BDA185FF1F044A137803F0DF03400100F0200018431070704720510040044A137803F0BF0385
:40268000800100F0400018431070704720510040014B1B681865704708ED00E04001C0B2014B1870704700BF04E400E01022014B1A60704700E100E01022014B1A6070476A
:4026C00080E100E010B50446FFF7F6FF2046FFF7DFFF0720FFF7E2FFFFF7E8FF10BD00BF054A137843F0100313701032137843F010031370704700BFA2430040F0B583B052
:4027000086460F4616461D460A4C0023237000930193184671463A46FFF730FA207831462A46FFF7EDF920780221FFF7D7F9207803B0F0BD3481FF1F08B5FFF791F90A4A99
:40274000137843F0200313700132137843F0100313700232137843F010031370FFF784F900F09EF808BD00BF94650040014B1878704700BF65650040014B1878704700BF82
:4027800067650040034B1B7813F0040FFAD0024B18707047656500404465004008B501E00A4B1B780A4B1B7813F0200FF8D1FFF757F9084B1A7842F001021A701A7802F0F6
:4027C000FE021A70FFF750F908BD00BF54650040676500409465004008B50F22074B1A70FFF7DCFFFFF7C2FFFFF7C6FF0422044B1A70002202331A7008BD00BF84650040B4
:402800008565004008B5054B1B7823B9FFF7E4FF0122024B1A70FFF78FFF08BDA285FF1F044A137803F0DF03400100F0200018431070704730510040044A137803F0BF03B1
:40284000800100F0400018431070704730510040014B1B681864704708ED00E04001C0B2014B1870704700BF00E400E00122014B1A60704700E100E00122014B1A607047BB
:4028800080E100E010B50446FFF7F6FF2046FFF7DFFF0720FFF7E2FFFFF7E8FF10BD00BF054A137843F0080313701032137843F008031370704700BFA243004010B502228F
:4028C000114B1A7081220E3B1A70082202331A70042211331A70002401331C704FF400420A4B1A600F200721FFF7DEF90F200849FFF7C6F91022074B1A70074B1C70074BD0
:402900001C70074B1C7010BDD649004080E100E071290000B899FF1FBE99FF1FC099FF1FBC99FF1F08B5FFF79BF8064A137843F0040313701032137843F004031370FFF7FA
:4029400093F808BDA543004008B5074B1B7823B9FFF7B4FF0122044B1A70FFF7E3FF4FF40042024B1A6008BDA385FF1F00E100E038B5A44B1C78E4B2A34B1B7813F0400FF3
:4029800000F0378114F0010F00F01B819E4B1B78453B052B00F21281DFE813F006008200100110010600DE0004F0DF0504F00A04082C42D1944B1B78DBB2452B35D1934B52
:4029C0001B7813F0FF0F10D0914B1B681B78DBB2904A137004228B4B1A7001228E4B1A704622894B1A702C46EBE08C4B1B7813F0020F0DD08A4A137843F00A031370602269
:402A0000814B1A704FF40042864B1A602C46D8E0854A137843F0100313701022834B1A700422023B1A702C46CBE00022754B1A704A22754B1A702C46C3E00A2C2BD1784A64
:402A4000137843F0A0031370744B1B7813F0020F14D06D4B1B7813F0080F01D0092300E00A236F4A11780B4313706022664B1A704FF400426B4B1A602C46A2E06A4A137801
:402A800043F0100313701022684B1A700422023B1A702C4695E00020FFF7D0F82C4690E014F0020F35D15C4B1B78584A1278DBB2934210D2584A1378DBB255490968CB5C95
:402AC000DBB254490B7004214E4B197013780133DBB2137075E0514B1B7813F0020F0CD04F4A137843F00A0313706022464B1A704FF400424B4B1A6063E04B4A137843F0F8
:402B0000100313701022494B1A700422023B1A7057E0424B1B7813F0020F0CD0404A137843F09A0313706022374B1A704FF400423C4B1A6045E03C4A137843F01003137000
:402B400010223A4B1A700422023B1A70344A137843F09003137034E0354A1378DBB2354908682C490978C9B2C15413780133DBB213701378304A1278DBB2934203D21022EF
:402B8000204B1A701DE0254B1B7813F0020F0CD0234A137843F00903137060221A4B1A704FF400421F4B1A600BE01F4A137843F0100313700022134B1A7002E00020FFF7F2
:402BC0003DF814F0200F1CD00F4B1B7813F0080F01D0012300E00223114A11780B431370114A137803F0EF0313701022064B1A7038BD054B1B7813F0100F02D11022024B24
:402C00001A7038BDD7490040B899FF1FBF99FF1FC499FF1FD8490040BC99FF1FBD99FF1FBE99FF1F80E100E0D6490040D9490040C099FF1FC899FF1FCC99FF1F1A4B1B7825
:402C4000DBB2102B29D1194B1B7813F0080F26D14FF40042164B1A604000C0B229B140F001004922104B1A7002E045220E4B1A70104B1870012201331A700F4B1B7813F03D
:402C8000010FFAD00C4B1B7803F00A030A2B08D11022054B1A700320704702207047012070470020704700BFB899FF1FD949004080E100E0D8490040D7490040164B1B784E
:402CC00013F0040F23D04000C0B229B140F001004922124B1A7002E04522104B1A70104B1870122201331A700422023B1A700D4B1B7813F0010FFAD00A4B1B7803F00A031C
:402D00000A2B06D11022054B1A7003207047022070470020704700BFD9490040B899FF1FD8490040D74900400A4B1B7813F0040F0ED01023074A13700421023A1170064A8B
:402D40001370064B1B7813F0210FFAD00020704702207047D9490040B899FF1FD7490040114B1B7813F0040F1BD0104B18700422013B1A7046220E4B1A700E4B1B7813F015
:402D8000010FFAD00B4B1B7813F0020F04D16022074B1A70002070476022054B1A70032070470220704700BFD9490040D8490040B899FF1FD7490040114B1B7813F0040FCD
:402DC0001BD0104B1B78DBB2492B05D100220E4B1A704A220B4B1A700B4B1B7813F0010FFAD00A4B1B78DBB218B11021064A117004E06021034A117000E000231846704781
:402E0000D9490040B899FF1FD7490040D8490040014B1B685865704708ED00E04001C0B2014B1870704700BF05E400E02022014B1A60704700E100E02022014B1A607047E3
:402E400080E100E010B50446FFF7F6FF2046FFF7DFFF0720FFF7E2FFFFF7E8FF10BD00BF044A137803F0FB03800000F0040018431070704760510040044A137803F0F703EF
:402E8000C00000F0080018431070704760510040014B1B685864704708ED00E04001C0B2014B1870704700BF01E400E00222014B1A60704700E100E00222014B1A607047FB
:402EC00080E100E010B50446FFF7F6FF2046FFF7DFFF0720FFF7E2FFFFF7E8FF10BD00BF024A137843F080031370704773640040024A137803F07F0313707047736400407B
:402F0000014B1870704700BF07640040014B1870704700BF47640040014B1870704700BF27640040014B1870704700BF87640040014B1878704700BF67640040014B1878A4
:402F4000704700BF5764004008B501E0FFF7F6FFFFF7EEFF10F0100FF8D108BD10B5114A137803F0C00343F0090313700E4C237843F001032370FF20FFF7C2FFFF20FFF7FA
:402F8000C5FFFF20FFF7C8FF0020FFF7CBFFFEF767FD237843F010032370FEF765FDFFF7D3FF10BD736400409764004008B5054B1B7823B9FFF7D2FF0122024B1A70FFF753
:402FC0008FFF08BDA485FF1F014B1868704700BF9881FF1F0E4B70B51E460E4C0025E41AA410A54204D056F8253098470135F8E700F03EFC084B094C1E46E41AA41000254C
:40300000A54204D056F8253098470135F8E770BD7C3800007C3800007C3800008438000010B5431E0A44914204D011F8014B03F8014FF8E710BD03460244934202D003F8A1
:40304000011BFAE770470000194B10B51C68A36BD3B9182000F032F843F20E33A06303804AF6CD33438041F2342383804EF26D63C3804DF6EC630381052343810B238381F0
:4030800001220023C0E90423A16B0A4C0B6948695C43094A02FB0040A3FB02230132034443F10003C1E9042323F0004010BD00BF9881FF1F2DF451582D7F954C024B0146FE
:4030C000186800F003B800BF9881FF1F70B5CC1C24F0030408340C2C38BF0C24002C064603DA0C233360002070BD8C42F9D3204A136810461946A1B10A68121B0ED40B2A4C
:4031000003D90A608B188C501FE08B420BBF5A684A6802605A6018BF0B4616E00B464968E9E7144D2B681BB9304600F025F828603046214600F020F8421C0346D1D0C51CD3
:4031400025F0030585420AD11C6003F10B001A1D20F00700821A0AD05142995070BD3046E91A00F009F80130BBD02B46ECE770BDAC85FF1FA885FF1F38B5064C00230546CA
:4031800008462360FEF790F9431C02D1236803B12B6038BDD099FF1F0000000080808080F001C3F001963601683A0155B00180B6020002B50402030004B1028010B4010039
:4031C000B701C6C50124E40131E808408A00002919A533C200A700E00EF0091312122B3C444B1B18171D21E10EF009130C0D273B444D0B17171D21360148F001C3F001696D
:40320000130011003601882900000000430143014401440144014401440145014501450145014601460146014601460147014701470147014801480148014801490149014E
:40324000490149014A014A014A014A014B014B014B014B014C014C014C014C014D014D014D014E014E014E014E014F014F014F014F01500150015001510151015101510189
:40328000520152015201530153015301530154015401540155015501550156015601560156015701570157015801580158015901590159015A015A015A015A015B015B0123
:4032C0005B015C015C015C015D015D015D015E015E015E015F015F015F0160016001600161016101610162016201620163016301630164016401640165016501650166019E
:40330000660166016701670167010000000000000100010001000200020002000300030003000400040004000500050005000600060006000700070007000800080008001B
:403340000900090009000A000A000A000B000B000B000C000C000C000D000D000D000E000E000E000E000F000F000F00100010001000110011001100120012001200120098
:403380001300130013001400140014001500150015001500160016001600170017001700170018001800180019001900190019001A001A001A001A001B001B001B001C0025
:4033C0001C001C001C001D001D001D001D001E001E001E001E001F001F001F001F0020002000200020002100210021002100220022002200220022002300230023002300D7
:4034000024002400240024002400250000003C027804B306EE08280B610D990FD01106143A166C189D1ACB1CF71E212148236C258E27AC29C72BDF2DF32F033210341836D0
:403440001D381C3A183C0E3E0040ED41D443B74594476B493D4B084DCE4E8E504752FA53A6554C57EB58825A135C9D5D1F5F9A600E627A63DE643A668E67DA681E6A5A6BE3
:403480008D6CB86DDA6EF46F04710D720C730274EF74D375AE76807748780779BC79687A0B7BA37B337CB87C347DA67D0E7E6D7EC17E0C7F4C7F837FB07FD37FEC7FFB7F6E
:4034C0000080FB7FEC7FD37FB07F837F4C7F0C7FC17E6D7E0E7EA67D347DB87C337CA37B0B7B687ABC79077948788077AE76D375EF7402740C730D720471F46FDA6EB86DA7
:403500008D6C5A6B1E6ADA688E673A66DE647A630E629A601F5F9D5D135C825AEB584C57A655FA5347528E50CE4E084D3D4B6B499447B745D443ED4100400E3E183C1C3A7E
:403540001D38183610340332F32FDF2DC72BAC298E276C2548232121F71ECB1C9D1A6C183A160614D011990F610D280BEE08B30678043C020000C4FD88FB4DF912F7D8F4B4
:403580009FF267F030EEFAEBC6E994E763E535E309E1DFDEB8DC94DA72D854D639D421D20DD0FDCDF0CBE8C9E3C7E4C5E8C3F2C100C013BE2CBC49BA6CB895B6C3B4F8B2A9
:4035C00032B172AFB9AD06AC5AAAB4A815A77EA5EDA363A2E1A0669FF29D869C229BC69972982697E295A6947393489226910C90FC8EF38DF48CFE8B118B2D8A5289808894
:40360000B887F98644869885F5845D84CD834883CC825A82F28193813F81F480B4807D8050802D80148005800080058014802D8050807D80B480F4803F819381F2815A82E6
:40364000CC824883CD835D84F58498854486F9864878808852892D8A118BFE8BF48CF38DFC8E0C90269148927393A694E29526977298C699229B869CF29D669FE1A063A215
:40368000EDA37EA515A7B4A85AAA06ACB9AD72AF32B1F8B2C3B495B66CB849BA2CBC13BE00C0F2C1E8C3E4C5E3C7E8C9F0CBFDCD0DD021D239D454D672D894DAB8DCDFDE1C
:4036C00009E135E363E594E7C6E9FAEB30EE67F09FF2D8F412F74DF988FBC4FD00010001FFFF010101010101808386898C8F9295989B9EA2A5A7AAADB0B3B6B9BCBEC1C4CB
:40370000C6C9CBCED0D3D5D7DADCDEE0E2E4E6E8EAEBEDEEF0F1F3F4F5F6F8F9FAFAFBFCFDFDFEFEFEFFFFFFFFFFFFFFFEFEFEFDFDFCFBFAFAF9F8F6F5F4F3F1F0EEEDEB95
:40374000EAE8E6E4E2E0DEDCDAD7D5D3D0CECBC9C6C4C1BEBCB9B6B3B0ADAAA7A5A29E9B9895928F8C898683807C797673706D6A6764615D5A5855524F4C494643413E3B77
:40378000393634312F2C2A282523211F1D1B1917151412110F0E0C0B0A090706050504030202010101000000000000000101010202030405050607090A0B0C0E0F1112143D
:4037C0001517191B1D1F212325282A2C2F313436393B3E414346494C4F5255585A5D6164676A6D707376797C035B00402443004040000000C8490040190010510040100075
:40380000405100401000C05100401000F0510040100000000140800000010140000180020140800D801401408005801A0140800100400140000A004C014000020050014000
:403840002000000080000140E408004880000002014064090048800000140140E40900488000001A0140640A0048800043000000F8B500BFF8BC08BC9E4670474D00000091
:4038800025150000F8B500BFF8BC08BC9E46704729000000A83800000881FF1F98000000381800000000000000000000FF000000D899FF1FFF0000007F8000000F0000001C
:4038C0000000E02EC05D00001800000000366E0101FFFFFFFF00000000000000000000000000000000000000000000000000000000000000000000006C380000000000003F
:4039000000000000000000000000000000000000000000000000000000000000000000000000000000000000000000000000000000000000000000003881FF1F00000000B0
:403940000000000000000000000000000000000000000000000000000000000000000000000000000000000000000000000000000000000000000000000000000000000047
:403980000000000000000000000000000000000000000000000000000000000000000000000000000000000000000000000000000000000000000000000000000000000007
:4039C00000000000000000000000000000000000000000000000000000000000000000000000000000000000000000000000000000000000000000000000000000000000C7
:403A00000000000000000000000000000000000000000000000000000000000000000000000000000000000000000000000000000000000000000000000000000000000086
:020000040003F7
:0200000480007A
:400000000A52004003640040026500400800014030010140100201404003014042040140510501405D0601404C07014001090140030B0140020D014005140140471501400D
:400040004B160140441701404D180140321901400D1A0140461B01400D40014012410140104201400643014004440140104501400846014005470140104801401349014056
:400080000E4C0140134D014006500140045101400008011C101411051401188C1994280C29882C01810F840F870D840F8A0F12012F0130013701580459045C665F01050190
:4000C000061007180A800D280E81133015401608170618801C011D801E80224024042680272828022D402E012F103505368037103C143D203E023F8045AA4D85566857403D
:4001000067806D606E036F1476027702C070C2F8C4F0CAD8CCF0CEF0D0F0D210D8808401920496029F01A203B002B204B401B501D280D804D904DB04DC55DD50DF01000877
:4001400004100501061007020A200B400D280E0210801541170819201A201B011D2F1F112008251027012D102E05308037153C043D203E42444047544C044D025401568085
:4001800057186660671073408080812087018B01909191459280931097A09A709B0A9D85A201A52AAE40B402C0F4C2ECC4B8CAE0CCE8CEF0D0F0D220D870E002E280011018
:4001C00005230603070C0A020B100F401502170D19051A031B6A2001271029092B663110330F340337603B083F0156025728580459045B045C435D405F0180058102820A3C
:40020000840385048604870889028D109101940E9510980499189A099B049D01A102A501A902AF02B102B20FB51CB701B808BB20BF41D409D604D804D904DB04DC41DD10D1
:40024000DF010008012005050A080D200E20128019201E2020402148240226012744290C2A102D182E4231083310350136403714380439803B223C243E81461047044C017E
:400280004D805C415D045F10610865806740681069326A456B287202874089208A108E019081910592A09322940C959096459780988099079A809E029F54A001A130A318D6
:4002C000A480A940AC40B580C036C262C408CAF6CCF6CEFFD6F0D892E002E2A0E640E801EC40EE080005011A023A04130513060C072409180A200C400D021240151C16408F
:400300001723180919211A361B181C021E0D2040211A244025182702284029022B182D182F0231203230330F34403513360F3A803B083E103F015440580459045B045C41E1
:400340005D405F01840A86148F01960198089A129C1C9D01A006A208A601B201B61EB701B880BE04C020C106C5D2C601C702C817C9FFCAFFCBFFCDA0CF04D018D405D8047A
:40038000D904DA04DB04DC63DD55DF01E040E2C0E440E540E6C0E8C0EAC0ECC0EEC0000804100505060208080A2A0C040DA00E400F201020128015021604172819081A02DA
:4003C0001C101D801F502002244C27102D102E463240371438803C043D203E8140084828490250885880590A664067288F409080913292E59308940C960897809880990570
:400400009A829B2C9E019F10A130A205A358A484A680AB48AC01AE40AF14B101B310B502B604C0F4C2F7C47CCAF0CC68CEF8D004D204D60BD870E010E002E801EE08E0824C
:40044000EA10D409D604DB04DD30DF01000401510A150B801290132818441982200A21442284232829052A123020334139983B01404041044320480549095008522053404C
:400480005C205D8A600264016601682069516A046BC172017301802082028328840188028C048F209210955096089701980199049E019F80A42CA6A0AE80AF20B248C00F3E
:4004C000C20FC40ECA07CC0DCE0FD007D20CD6F0D898E045E408E640EA01010404010507073809040F0415561709190A1B101D01210424012504280129602D043001317F22
:4005000039823E013F4054095604580459045B045C405D405F01810D8412850186648702888D890D8A408C4D8E8090029102920D930D9410950296609708987299029A08E6
:400540009B049CCDA001A10DA232A4CDA50DAA80ACCDAD0DB00FB10FB270B480BA0ABB02BE10D440D804D904DB04DC43DD30DF010008015004040A980B0110281288138080
:40058000171419041A901B101F0121022640274029802A062D802E462F08310233143754380439223C043D203E013F805C405E0A5F20626063206480670284018A408C8036
:4005C00090449122924596089A869B149E019F40A110A205A348A404A680A810AC04AE41B001C027C20FC46FCAFBCC77CEF7D6F0D89EE21AE408EA80010209020C020D0129
:400600000E0D1015120A1701181319021A0C24192606270130103101360F37023A803E013F4154095604580459045B045C025D205F018030810E83418473856486048718CA
:40064000880E89408D508E809010922094109510974098149AE99C309D409F10A020A114A410A540A620A710A820A919AA10AB22AC05AD50AEDAB0C0B178B20FB307B4316C
:40068000B808BB0AD440D804D904DB04DC22DD20DF0100400101032805400AA90E040F40101813411508184019101A041B281D401F012105220C23402781281029112A4035
:4006C0002F2030083240360837103880392A3E103F425D025FA4610862906782832187418F08C08FC25FC42FCA4FCC6ACEBFD6F0D89EE020E4088103830C89098B069102B9
:40070000930D99059B0AB70FBB80D904DC30DF0100080141024003080A250B4010201209180419021B0821182211270229102A0630383241371239293B403E103F02400484
:400740004105438049114B0552956140682C69416A807040720380408210831887018B829040910A920493409480952196B1970599509C109D039E509F10A208A408A50819
:40078000A680A701C00FC20FC407CA07CCAFCEAFD00FD204D808E220E405EA0112081580170433043608378039823E414340C4E0CCE0CEF0D0100710304055015940634210
:4007C000880189409340950296419FC0AF40C020CC10D480D660D840EE403E10850187018B098E40950296419C409FC0A001A501A701B710CE20E040E64096119C409FC158
:40080000A001A308A50105047F10C004DE01010105025108570158405A045C0286048B019720B504C00CD405D607E001EA0845088508910197209C42A908AD02D0018C02E2
:40084000910197209C42E0082701840186018F40932096119FC1A001A308A901AF10B040C820E210E410EEC00402238054015708620167208C018E0193209F80A001A3080A
:40088000AA10C020C840D440D620D8C0EA8010401320150879017F8087208B108F10910197209C40C40EDE03E00C038005025104560257205B026320820283028902910811
:4008C000A330A780AB20C00CD406D606D802E201007A08720A7A101C1A181C0C00FD010F03C010550ACD100084100060048D004000000080011200640701383256CD090080
:400900008402000D84CD00008072040860000000044D80807F0000800070800F020000A0000040044203100005CEFD0B1FFFFFFF2200F008040000000000022C0404040498
:40094000111100010000C00040011011C00100114001400100000000000000000000000000000000C104380018180223020118061A04000000700000332744489C290356D9
:400980001A000000820400001804000000000004180002000F001300E007007800802220000000002306100004E0DCFB3EFFFFFF2200F0080400000040000000040404047D
:4009C000411400010000C00040011011C00100114001400100000000000000000000000000000000841A0000019C0003800204180433804460180002040000008418000238
:400A0000841A0000078238000A18100056C1093800000000800000E07F0F081320000028000041006305400002CEFB0D1FFFFFFF2200F0080400000000000220040404044F
:400A4000333300010000C00040011011C00100114001400100000000000000000000000000000000849D000080E20408012000C0042280C40A02100D041D0080079D380019
:400A8000848D0010009D0000840000105601096260000000800F7F1080E0000008000022000011044306200001CEFDBD3FFFFFFF2200F00804000000000002200404040487
:400AC000222200010000C00040011011C0010011400140010000000000000000000000000000000002FCFC009C000000010002FCFD009D000000000002FCFC009C00000076
:400B0000010002FCFD009D00000000000200000F0D000000200000005C00180100010000000200000003000000000000000000000000000000000000000000000000000063
:400B40000000000000000000000000000000000000000000000000000000000000000000000000000000000000000000000000000000000000000000000000000000000075
:400B80000000000000000000000000000000000000000000000000000000000000000000000000000000000000000000000000000000000000000000000000000000000035
:400BC00000000000000000000000000000000000000000000000000000000000000000000000000000000000000000000000000000000000000000000000000000000000F5
:400C000000000000000000000000000000000000000000000000000000000000000000000000000000000000000000000000000000000000000000000000000000000000B4
:0200000490006A
:0400000000004005B7
:0200000490105A
:04000000BC90ACAF55
:0200000490303A
:020000009D134E
:0200000490402A
:4000000000000000000000000000000000000000000000000000000000000000000000000000000000000000000000000000000000000000000000000000000000000000C0
:400040000000000000000000000000000000000000000000000000000000000000000000000000000000000000000000000000000000000000000000000000000000000080
:400080000000000000000000000000000000000000000000000000000000000000000000000000000000000000000000000000000000000000000000000000000000000040
:4000C0000000000000000000000000000000000000000000000000000000000000000000000000000000000000000000000000000000000000000000000000000000000000
:0200000490501A
:0C00000000012E12306900012E2ACD7C78
:00000001FF