:4000000000800020110000007D1700007D17000008B5044B1A6803F53F5302331A6001F0C7FB00BFFA46004010B5054C237833B9044B13B10448AFF300800123237010BD8C
:40004000A081FF1F00000000CC340000084B10B51BB108480849AFF300800848036803B910BD074B002BFBD0BDE81040184700BF00000000CC340000A481FF1F0881FF1F11
:400080000000000007490A780132074B83FB0203A3EBE27303EB4303D31ADBB20B7001234B707047BC81FF1F56555555094B1B78DBB2022B0CD1074A01239370D37801339F
:4000C000DBB2D370D378DBB2034AD25C034B1A70704700BFBC81FF1F1C3A00000C81FF1F054B1A7912F0FF0F0CBF012200221A7101225A71704700BFBC81FF1F10B586B0EB
:4001000062B602F0F1FC01F0FBFD02F00BFB02F00BFC002000F032FB012000F02FFB022000F02CFB032000F029FB002000F0AAFA012000F0A7FA022000F0A4FA032000F0DD
:40014000A1FA02F007F902F019F902F06FFD00F077FE002000F0FEFB012000F0FBFB022000F0F8FB032000F0F5FB6C4802F0DCFF6B4B18680390002301930293694803F0D9
:4001800013F8694803F0ACF803F082F8674B5B7813F0FF0F1BD0654C00236370207800F0010002F0CFFF2078C0F3400002F0D6FF2378DBB2012B01D100F0B8FE5B4B1B78B7
:4001C000DBB2022B03D1594B187901F091F8574B9B7813F0FF0F06D00022544B9A70544B187803F00BF8514B1B7813F0FF0F6CD10DF1160005A90DF1120200F02FFEBDF813
:40020000160001B20029B8BF4942BDF814301AB2002AB8BF5242914229DB80238DF80C308DF80E30000A1B1A8DF80D3080F080008DF80F00BDF8123013F4004F01D100220C
:4002400000E0B422ADF8062013F4004F01D1002300E0B423ADF80A3000F0E6FBADF804009DF80D0000F0E0FBADF8080028E080228DF80D208DF80F201B0A83EA02008DF85F
:400280000C00D31A8DF80E30BDF8123013F4004F01D1002200E0B422ADF8042013F4004F01D1002300E0B423ADF8083000F0BCFBADF806009DF80E0000F0B6FBADF80A009E
:4002C00003A801A900F0B6FB60E7184B1B78DBB2012B0FD10DF1160005A90DF1120200F0BDFDBDF91600BDF91410BDF9122000F073FE4BE70D4B1B78DBB2022B7FF446AF86
:400300000A4B5B7913F0FF0F3FF440AF074B00225A71187900F0ECFF38E700BF85000000D0340000AD000000E1000000BC81FF1F0C81FF1F824204D38A4201D90846704775
:400340001046704710B50C46032832D8DFE800F0020E1A26002002F0D5FB204602F084FB02F076FB10F0010FFAD010BD002002F033F9204601F084FC01F076FC10F0010FD2
:40038000FAD010BD002002F0E7F9204602F08AF902F07CF910F0010FFAD010BD002002F0D1FA204602F080FA02F072FA10F0010FFAD010BD10B50C46032832D8DFE800F014
:4003C000020E1A26012002F09DFB204602F04CFB02F03EFB10F0010FFAD010BD012002F0FBF8204601F04CFC01F03EFC10F0010FFAD010BD012002F0AFF9204602F052F9BC
:4004000002F044F910F0010FFAD010BD012002F099FA204602F048FA02F03AFA10F0010FFAD010BD2DE9F04104460F4616461D46002040F23F113A46FFF77CFF804640F2A9
:400440003F113246FFF776FF0746002040F2DF112A46FFF76FFF064640F2DF11BDF81820FFF768FF054620462A21FFF76BFF2046C8F30721FFF79EFF20465FFA88F1FFF7C8
:4004800099FF2046C7F30721FFF794FF2046F9B2FFF790FF20462B21FFF754FF2046C6F30721FFF787FF2046F1B2FFF783FF2046C5F30721FFF77EFF2046E9B2FFF77AFFD5
:4004C000BDE8F0812DE9F04F83B005468E4617461C46BDF834604FEA162AF6B2002040F23F117246FFF726FF804640F23F113A46FFF720FF8146002040F2DF112246FFF75D
:4005000019FF044640F2DF11BDF83020FFF712FF07460090284641464A462346FFF782FF28462C21FFF70EFF032D00F28F80DFE805F00225486B012002F0E4FA002207E06A
:4005400053009BB2434901F803A00133CE540132C8EB090B0BF1010B9345F1DC0AE0284600F0F8F94FEA4B0292B22846394900F087F901347B1CA342F1DC67E0012002F07B
:400580002BF8002207E053009BB2334901F803A00133CE540132C8EB090B0BF1010B9345F1DC0AE0284600F0D5F94FEA4B0292B22846294900F064F901347B1CA342F1DCCF
:4005C00044E0012002F0C8F8002207E053009BB2224901F803A00133CE540132C8EB090B0BF1010B9345F1DC0AE0284600F0B2F94FEA4B0292B22846184900F041F901346C
:400600007B1CA342F1DC21E0012002F09BF9002207E053009BB2124901F803A00133CE540132C8EB090B0BF1010B9345F1DC0AE0284600F08FF94FEA4B0292B228460849D3
:4006400000F01EF901347B1CA342F1DC03B0BDE8F08F00BFB494FF1F3492FF1FB485FF1FB48FFF1F00B583B040F2DF1300930191002140F23F120B46FFF724FF03B05DF816
:4006800004FB00BF2DE9F041074602F0A3FD032F2AD8DFE807F0020C1620002002F03EFA0A2001F041FC012002F038FA1CE0002001F09EFF0A2001F037FC012001F098FF98
:4006C00012E0002002F03CF80A2001F02DFC012002F036F808E0002002F040F90A2001F023FC012002F03AF938460121FFF72AFE782001F019FC00251BE06B1C124A12F821
:4007000005800235D45C38464146FFF71BFE08E06E1C38460C4B595DFFF74CFE013CE4B23546002CF4D1B8F1110F02D1782001F0FBFB682DE1D902F0ABFD38460021FFF7A4
:4007400091FFBDE8F08100BFD43400000022014B1A707047C281FF1F0022014B5A707047C281FF1F0022014B9A707047C281FF1F0022014BDA707047C281FF1F10B503285C
:4007800072D8DFE800F0021E3A560120014641F6FF724FF4804302F023F9344C207101F085FB60710121FE22052301F099FB6079002146F2475201F0A7FB2D4802F0D4F990
:4007C00010BD0120014641F6FF724FF4804301F011FA264CA07101F069FBE0710121FE22052301F07DFBE079002146F2424201F08BFB204801F022FF10BD0120014641F68B
:40080000FF724FF4804301F0B3FF184C207201F04DFB60720121FE22052301F061FB607A002146F2494201F06FFB134801F0DAFF10BD0120014641F6FF724FF4804301F0D4
:40084000EDFF0A4CA07201F031FBE0720121FE22052301F045FBE07A002146F2454201F053FB064802F0A0F810BD00BFC281FF1F4D07000059070000650700007107000044
:4008800070B50C46032862D8DFE800F0021A324A2F4D01262E7068791146FE22052301F01FFB6879A1B246F2475201F02DFB2879697901F0B3FA2879314601F067FA70BD6B
:4008C000234D01266E70E8791146FE22052301F007FBE879A1B246F2424201F015FBA879E97901F09BFAA879314601F04FFA70BD174D0126AE70687A1146FE22052301F0FC
:40090000EFFA687AA1B246F2494201F0FDFA287A697A01F083FA287A314601F037FA70BD0B4D0126EE70E87A1146FE22052301F0D7FAE87AA1B246F2454201F0E5FAA87A8D
:40094000E97A01F06BFAA87A314601F01FFA70BDC281FF1F00B583B000238DF807308DF8063003285AD8DFE800F002182E442D4B1B7813F0FF0F51D02A4B18790DF1070122
:400980000DF1060201F056FA9DF8063013F0030FF2D10022234B1A7040E0224B5B7813F0FF0F3BD01F4B98790DF107010DF1060201F040FA9DF8063013F0030FF2D1002240
:4009C000184B5A702AE0174B9B7813F0FF0F25D0144B187A0DF107010DF1060201F02AFA9DF8063013F0030FF2D100220D4B9A7014E00C4BDB7813F0FF0F0FD0094B987A18
:400A00000DF107010DF1060201F014FA9DF8063013F0030FF2D10022024BDA7003B05DF804FB00BFC281FF1F014B33F810007047403500002DE9F04F97B007460E46002414
:400A40002FE036F8140000F0D5F9804616AB03EB840545F8100C36F8140000F0DDF945F8200CB8F1000FD4BF0023012345F8403C3B5DC3EB03135B011B12C3F5F07345F817
:400A8000303CE5B240F2DF1300932846002140F23F120B46FFF7C6FC28462C21FFF752FC0134032CCDDD012002F02CF8012001F093FD012001F050FE012001F043FF4FF088
:400AC0000009AB4B0593DFF8C482AA4B0493AA4FAA4B0393AA4EAB4B0293AB4D77E1129BABB90E9B002B05DA0A9B4B45CCBF0023012306E00A9BC3F5F0734B45D4BF0023A8
:400B000001230BB1002416E04FF4A07413E0A9F1F004640003EB830189010E9A04FB02145B0094FBF3F4002C00DA0024B4F5A07F01DD4FF4A074069B23B14FF0000A4FF0D1
:400B4000FF0B03E04FF0FF0A4FF0000B0020FFF701FF002306E005F813B005EB430282F801B00133A342F6DB06E005F814A005EB440383F801A00134B4F5A07FF5DB0020F6
:400B800029464FF42072FFF77BFE139BABB90F9B002B05DA0B9B4B45CCBF0023012306E00B9BC3F5F0734B45D4BF002301230BB1002416E04FF4A07413E0A9F1F004640091
:400BC00003EB830189010F9A04FB02145B0094FBF3F4002C00DA0024B4F5A07F01DD4FF4A074079B23B14FF0000A4FF0FF0B03E04FF0FF0A4FF0000B0120FFF7ABFE0023E3
:400C000006E006F813B006EB430282F801B00133A342F6DB06E006F814A006EB440383F801A00134B4F5A07FF5DB012031464FF42072FFF725FE149BABB9109B002B05DABB
:400C40000C9B4B45CCBF0023012306E00C9BC3F5F0734B45D4BF002301230BB1002416E04FF4A07413E0A9F1F004640003EB83018901109A04FB02145B0094FBF3F4002C8F
:400C800000DA0024B4F5A07F01DD4FF4A074089B23B14FF0000A4FF0FF0B03E04FF0FF0A4FF0000B0220FFF755FE002306E007F813B007EB430282F801B00133A342F6DB39
:400CC00006E007F814A007EB440383F801A00134B4F5A07FF5DB022039464FF42072FFF7CFFD159BABB9119B002B05DA0D9B4B45CCBF0023012306E00D9BC3F5F0734B45F4
:400D0000D4BF002301230BB1002416E04FF4A07413E0A9F1F004640003EB83018901119A04FB02145B0094FBF3F4002C00DA0024B4F5A07F01DD4FF4A074099B23B14FF05C
:400D4000000A4FF0FF0B03E04FF0FF0A4FF0000B0320FFF7FFFD002306E008F813B008EB430282F801B00133A342F6DB17E000BFB48AFF1F3488FF1FB485FF1F3497FF1F51
:400D80003492FF1F348DFF1FB494FF1FB48FFF1F08F814A008EB440383F801A00134B4F5A07FF5DB032041464FF42072FFF768FD09F101094346DDF8148005933B46049F46
:400DC00004933346039E03932B46029D0293B9F5F07FFFF684AE0020FFF7BCFD0120FFF7B9FD0220FFF7B6FD0320FFF7B3FD17B0BDE8F08FC308064AA2FB03239B084FF4E4
:400E0000B47202FB130080B2024B33F910007047176CC116403700005A30074A80FB0223C218C317C3EB22234FF4B47202FB1303024A32F913007047B7600BB6403700000B
:400E400008B56820002102F06BF86B2002F0FAF8012002F0F7F802F0D9F808BDF0B583B007460E4615466820002102F059F83B2002F0E8F86820012102F092F8002407E0A0
:400E8000012002F00BF902AB234403F8080C0134042CF5DD002002F001F9044602F0B6F89DF800209DF8013043EA02233B809DF802209DF8033043EA022333809DF80430F6
:400EC00044EA03242C8003B0F0BD00BF884203DB904202DD104670470846704781420EDD38B50D46044602F049FA291B013190FBF1F303FB1100204480B200B238BD00B217
:400F0000704700BF00280CDD10B5044602F036FA6300013390FBF3F202FB1300001B80B202E0002000B2704700B210BDF0B583B0002405E020460021FFF794FB0134E4B2F3
:400F4000032CF7D9002535E000204FF49D71FFF7C5FF064600204FF4ED71FFF7BFFF4FEA061CDFF870E063001F19BF002A01511B090139440EEB01072EF801C0010179806F
:400F80000021B980F9803E817881B1B283B20A1D181D80B200904FF6FF700190284692B2FFF790FA0134E4B200E00024132CCBD90135EDB2032DF8D9064B0022A3F8C02300
:400FC000A3F8C223A3F8C423012283F8C62303B0F0BD00BFD081FF1F2DE9F04F8BB0089009911446BF4B93F8C6330BB9FFF79EFFBC4AB2F9C0330898C31A83EAE371A1EB6B
:40100000E371B2F9C233099DEB1A002BB8BF5B420B440794B2F9C413611A0029B8BF49420B440693A2F8C003A2F8C253A2F8C443002303934EE1039A9046AB4B9B5C0BB127
:40104000099900E00899A84B434493F9042002FB01F25213049293F90830079A03FB02F35B1305934FF0000B2CE15C46069BB3F5FA6F16DD4FF4A070FFF744FF4FEA4B0329
:4010800003EB0B05AD004FEA0812C8EB02031B012B44944D1D44A8804FF4A070FFF732FFE88063001A1992004FEA0811C8EB01031B0113448B4A1A44938804990B449BB278
:4010C0009380D1880598014489B2D1801BB2C3EB03131846002B01DA03F10F00C0F30F1004EB44029200C8EB08131B0113447D4A134498800BB2C3EB03139946002B01DAA8
:4011000003F10F09C9F30F19DFF8D8A165002544AD004FEA0813C8EB03031B011D440AEB050700B26FF07F018022FFF7CFFE0646B8800FFA89F06FF07F018022FFF7C6FE32
:40114000F8803AF80520324492B22AF805207B8803449BB27B8012F4004F14D0554662001719BF004FEA0811C8EB010212013A44A91800272AF80270764206EBD676C6F325
:401180004F068E8018E012B241F2B0318A4213DD544D62001719BF004FEA0811C8EB010212013A44A91841F2B037AF52764206EBD676C6F34F068E8013F4004F13D063002C
:4011C000191989004FEA0812C8EB02031B010B44444A134400225A80404200EBD070C0F34F00D88018E01BB241F6B052934213DD6300191989004FEA0812C8EB02031B01CE
:401200000B44384A134441F6B0525A80404200EBD070C0F34F00D88032486300191989004FEA0812C8EB02031B010B44C218C35EB2F90270C7F30F1711890AB2C3F30F103B
:401240000290B2EB231F0DD104EB44029200C8EB08131B011344254A1344B3F902203BB29A422BD089B2DFF87CA04FEA440909EB0406B6004FEA0815C8EB05031B011E44C8
:40128000564473890A1D181D80B2009000200190039892B2FFF716F9BDF80810BBB20A1D181D80B200904FF6FF700190039892B2FFF708F9BDF80830338177810BF10103D9
:4012C0005FFA83FBBBF1130F7FF6CFAE039B0133DBB20393039B032B7FF6ADAE0BB0BDE8F08F00BFD081FF1F103A0000D881FF1F10B582B060B10024FFE02046FFF72AFB6C
:40130000204643F62A21FFF7ADF90134E4B200E00024032CF1D900240EE02046FFF71AFB3B230093002301932046194640F23F12FFF7C8F80134E4B2032CEED9002411E060
:401340002046FFF707FB40F2A313009342F6596301932046282140F217127823FFF7B2F80134E4B2032CEBD900240FE02046FFF7F1FAB323009340F2B343019320462821DB
:4013800063227823FFF79EF80134E4B2032CEDD9002410E02046FFF7DDFAB323009340F2B34301932046DC2140F217127823FFF789F80134E4B2032CECD900240FE020464D
:4013C000FFF7C8FAEF23009347F29E73019320466421DB22B423FFF775F80134E4B2032CEDD9002411E02046FFF7B4FA40F2A313009347F29E73019320466421DB224FF42D
:40140000B473FFF75FF80134E4B2032CEBD9002410E02046FFF79EFA40F26713009347F29E730193204628216322F023FFF74AF80134E4B2032CECD9002411E02046FFF7A6
:4014400089FA40F26713009347F29E7301932046DC2140F21712F023FFF734F80134E4B2032CEBD9002410E02046FFF773FA40F2671300934FF6FF73019320466421DB22CC
:40148000F023FFF71FF80134E4B2032CECD9002410E02046FFF75EFA40F22B1300934CF6FF730193204664219F22F023FFF70AF80134E4B2032CECD9002411E02046FFF753
:4014C00049FA40F2671300934CF6FF7301932046A021DB224FF49673FEF7F4FF0134E4B2032CEBD948E12046FFF734FA204644F68C21FFF7B7F80134E4B2032CF3D900247D
:4015000011E02046FFF726FA40F2A313009348F2042301932046002140F23F127823FEF7D1FF0134E4B2032CEBD900240EE02046FFF710FA3B2300930023019320461946C1
:4015400040F23F12FEF7BEFF0134E4B2032CEED9002411E02046FFF7FDF940F26713009348F6862301932046002140F23F12B423FEF7A8FF0134E4B2032CEBD9002411E004
:401580002046FFF7E7F94FF4D27300934EF6894301932046282140F217127823FEF792FF0134E4B2032CEBD900240FE02046FFF7D1F9B32300934CF20433019320462821ED
:4015C00063227823FEF77EFF0134E4B2032CEDD9002410E02046FFF7BDF9B32300934CF2043301932046DC2140F217127823FEF769FF0134E4B2032CECD900240FE0204613
:40160000FFF7A8F9EF2300934FF24C63019320466421DB22B423FEF755FF0134E4B2032CEDD9002411E02046FFF794F940F2A31300934FF24C63019320466421DB224FF4FA
:40164000B473FEF73FFF0134E4B2032CEBD9002410E02046FFF77EF940F2671300934FF24C630193204628216322F023FEF72AFF0134E4B2032CECD9002411E02046FFF713
:4016800069F940F2671300934FF24C6301932046DC2140F21712F023FEF714FF0134E4B2032CEBD9002410E02046FFF753F940F2671300934FF6FA73019320466421DB2245
:4016C000F023FEF7FFFE0134E4B2032CECD9002411E02046FFF73EF940F2671300934FF6F17301932046A021DB224FF49673FEF7E9FE0134E4B2032CEBD9002410E020467E
:40170000FFF728F940F22B1300934FF6F1730193204664219F22F023FEF7D4FE0134E4B2032CECD900240FE02046FFF713F97723009344F22A2301932046002127223C231F
:40174000FEF7C0FE0134E4B2032CEDD9002411E02046FFF7FFF87723009344F22A23019320464FF48C7140F23F123C23FEF7AAFE0134E4B2032CEBD902B010BDFEE700BF44
:4017800008B5094B1A681044084BC31A802B02DC054B186005E001F0B1FD0C2303604FF0FF32104608BD00BF1081FF1FD899FF1F08B5104E104D16E029686B68AC6800221B
:4017C00004E051F8040B43F8040B0432A242F8D1E868002203E0002143F8041B04328242F9D11035013E002EE6D101F08DFDFEF785FCFEE701000000B83B000008B5134A9F
:40180000134B1A60134A136843F40073136000230AE0032B03D8104A52F8231000E00F490F4A42F8231001332F2BF2D90D4B1A780D4B1A700A4A0D4B1A6000F011F900F0BB
:401840008BFA00220A4B1A6008BD00BF0004FA050CED00E014ED00E0000000007D1700000080FF1FBC7600400481FF1F08ED00E00081FF1FFEE700BFF0B40022174611E03E
:4018800050F82760F3B226F0FF0608E001EB420511F812406D78A5550132013BDBB2002BF4D10137242FEBD9F0BC70470A4B1B78DBB203F00701094A11701B090132137088
:4018C0002022074B1A70022203F693131A704422A3F28A231A707047CF0100496E5800406D51004008B50A46002101F03EFD08BD08B501F02FFD08BD38B500243D4B1C8084
:40190000502202331A7002331C8058233A4A13700232148002321370023214800232137002321480023213700122344B1A80182202331A704EF65F2202331A80192502336A
:401940001D70312202331A801B2202331A702C482C490422FFF7CCFF02222B4B1A7008224FF040231A70032103F500731970274B1B78DBB226490B70264B1A8041F251222D
:40198000023B1A800CE0244B1B7803F0010343EA440404F003044FF4F07000F0CDF9013D0DB1032CEFD115B90320FFF763FF1B4B4FF480721A8007221A70002218490A7089
:4019C0004820023108701A700222033B1A7004220A331A7003F297331A78FF221A70114A137843F001031370013A137843F08003137038BD804000408640004094400040C7
:401A000000410040940B00480043004008010049A146004022420040254200400440004006400040A1430040012807D8044B53F820201844017A13780B431370704700BF3E
:401A40001C3B0000012808D8044B53F820201844017A137823EA0103137070471C3B000070B572B6464A137843F00403137000240AE0444963001A1952000A44D068118A5F
:401A8000FFF730FF0134E4B20B2CF2D9002410E03C49A3001A1952000A4452F8540F23445B000B445168B3F85C20FFF721FF0134E4B2022CECD94FF090403349FFF7DCFE58
:401AC0000A24324B1C7032480421FFF70BFF314831490422FFF70CFF304831490422FFF707FF304830490422FFF702FF2F4A137843F0020313701032137843F0020313708D
:401B00002B4D2B7843F040032B70A2F58632513A137843F010031370264827490822FFF7E7FE264826492246FFF7E2FE254826492246FFF7DDFE254825490822FFF7D8FE67
:401B4000244825492246FFF7D3FE244824492246FFF7CEFE234A137843F008031370224E01243470FFF7C8FE812333701F4B1C70FFF79CFE1E4829460E22FFF7B9FE70BDFF
:401B8000E84600401C3B000094000048835800400076004008760040980B0048107600409C0B004818760040A00B004803500140A043004002510040540B0048F051004022
:401BC0005C0B004820510040680B004832510040740B0048505100407C0B004860510040880B0048224300400048004004000840B0430040F0B583B086460F4616461D4660
:401C00000B4C01232370002200920192184671463A4600F027F9207831462A4600F0E4F82078022100F0CEF8207803B0F0BD00BF1481FF1F08B500F087F80A4A137843F046
:401C400020031370013A137843F010031370013A137843F01003137000F07AF800F05EF808BD00BF92640040014B1878704700BF61640040014B1878704700BF6064004091
:401C8000034B1B7813F0040FFAD0024B18707047616400404264004008B501E00A4B1B780A4B1B7813F0200FF8D100F04DF8084B1A7842F001021A701A7802F0FE021A709C
:401CC00000F046F808BD00BF52640040606400409264004008B50F22074B1A70FFF7DCFFFFF7C2FFFFF7C6FF0422044B1A700022013B1A7008BD00BF82640040816400403F
:401D000008B5054B1B7823B9FFF7E4FF0122024B1A70FFF78FFF08BD9885FF1F054A137843F0020313701032137843F002031370704700BFA24300400230800803D000BFCC
:401D400001380046FCD17047EFF3108072B6704780F31088704700BF0B4A7F2313708021517007E0DA0002F1804202F5F042013BDBB21370002BF5D1DB0003F1804303F54C
:401D8000F04300221A7070471881FF1F172815D831B103010A495A5C42F020025A5405E0030107495A5C02F0DF025A540001044A835C43F00103835400207047012070475E
:401DC0001070004017280BD80001064A835C03F0F10301F0070143EA4101815400207047012070471070004041F6FF73994201D14FF4005141F6FF739A4201D14FF4005268
:401E0000172808D8C00000F1804000F5EC408180C280002070470120704700BF172805D8034B03EB0010417200207047012070471070004017280FD831B1094B03EB001359
:401E40005B7A03F07F030B7042B1054B03EB0010037A13700020704701207047002070471070004017281BD810B4C00000F1804404F5EC44D201D2B201F07F0111432170D5
:401E80009DF804201201D2B203F00F03134363709DF8083003F00F03A3700020E07001E0012070475DF8044B704700BF10B5FFF74BFF0A4B5B78182B0BD9084A1478013B0E
:401EC0005370E30003F1804303F5F0431B78137000E0FF24FFF73CFF204610BD1881FF1F10F0800F0CD111F4704F0BD1C00000F1804000F5F04001808270C3700020704707
:401F0000012070470120704710F0800F08D1C00000F1804000F5F0408180C280002070470120704701BE704710B5044605E0084B1868FFF701FFA4F50044B4F5004FF6D82B
:401F4000034B586800FB04F0FFF7F6FE10BD00BF2081FF1F08B5034B1B7A03FB00F0FFF7EBFE08BD2081FF1F70B504460E46074B1D681F2802D90020FFF7D4FF04F01F0482
:401F8000103455F8240045F8246070BD08ED00E038B504460D46072902D90020FFF7C2FF1F2C02D90020FFF7BDFF04F01F0000F1604000F564406D01EDB2057038BD00BFD2
:401FC00010B59DF80840012C4AD10138092826D8DFE800F00525250525250D15251D0F2B02D9214800781BE02048007818E00F2B02D91F48007813E01E48007810E00F2B1E
:4020000002D91D4800780BE01C48007808E00F2B02D91B48007803E01A48007800E0002040B201EB401101FB02F1C90B8AB20D2B0BD8C3F10E0289B211418AB2124901EB6F
:402040008401013301F8023C05E00F4B03EB84030F2103F8021C013C0B4B23F8242010BD0020FFF75FFF10BD180100491C010049190100491D0100491A0100491E01004915
:402080001B0100491F0100499C85FF1FF8B50746FFF75AFE06460D4D2B7843F003032B700B4C237843F0030323700A4B1F700320FFF750FF2B7803F0FC032B70237803F0E6
:4020C000FC0323703046FFF743FEF8BDF8460040F94600409258004038B50022314B1A7101285DD13422304B1A70042202331A70062201331A70002401331C7001331C708E
:402100003F2201331A7002331C7001331C7001331C7001250A331D70502203F527631A700A2201331A702C2201331A7001331C70442203331A70482201331A7001331D700C
:4021400002331D70112201331A70192201331A70972201331A705220FFF798FF5822134B1A7001331C70052205331A70022201331A7001331C7001331C70204600F018F969
:4021800043F233320A4B1A601620294600F034F95C20294600F0B4F91D200649FFF7E4FE38BD00BF9C85FF1F004E004094580040B499FF1F8D230000F0B583B0284D0127CB
:4021C0002F70284E00247471102000F003F9102000F084F91D200721FFF7DAFE0422224B1A7001331C7007331C70204A137843F0180313701E4B1C7003F2F5231C700133AA
:402200001C700A22A3F209331A7001331C7002331C705B2205331A705E2201331A7004331C701422A3F68C231A700097022048F6F0514FF400421023FFF7C2FE2B7806EB88
:40224000830313F8022C0B4B1A702B78013B36F82320094B1A802878FFF73EFF03B0F0BD3081FF1F9C85FF1F96580040075B0040935800400E4E00400C4E004070B5FFF7F4
:4022800063FD06462A4B1B782A4B1A7842F001021A701A7842F010021A7010331A7842F001021A701A7842F010021A70224D2B7843F002032B70214C237843F00203237098
:4022C0001F4A137843F0030313700320FFF742FE2B7803F0FD032B70237803F0FD032370184A137843F0060313707A22164B1A70164A137843F0010313701032137843F0AB
:40230000010313700F3A137843F0010313701032137843F0010313704FF000530C4A1360A2F5C07213603046FFF712FD70BD00BF3081FF1FAA430040F8460040F94600400A
:40234000915800407758004082580040A143004080E200E008B5084B9B794BB9064BDB7913F0FF0F01D1FFF727FF0122024B9A71FFF784FF08BD00BF9C85FF1F024A13784B
:4023800043F0010313707047004E0040704700BF10B5002404E02046FFF754FB0134E4B2012CF8D9FF22014B1A7010BD3181FF1F10B50446FFF7ECFF2046FFF735FB014B0B
:4023C0001C7010BD3181FF1F014B188880B2704780400040034B1A7800F0F80010431870704700BF82400040024B187800F00700704700BF8240004070B505460E46FFF7BE
:40240000F3FF0446FFF7E0FF854256D02B4B1B7803F0010294B900B185B938B9284B1D80284A137803F0BF03137070BD254A137843F040031370224B1D8070BD22B30023DE
:4024400021490B7001240F310C7004310B700C390B7803F07F030B701A4B1B7813F0080F00D08DB9194B18800721013B1970164B1B7813F0010FFAD110490B7803F0FE037B
:402480000B700021104B19700C4B1B7813F0010F0DD00E4B1D800EB1032200E001220A4B1A70094B1B7813F0010FFAD170BD044B1D8002490B7813430B7070BDA243004037
:4024C00080400040824000400140004002400040014B188880B2704700410040034B1A7800F0F80010431870704700BF02410040024B187800F00700704700BF0241004018
:4025000070B505460E46FFF7F3FF0446FFF7E0FF854256D02B4B1B7803F0010294B900B185B938B9284B1D80284A137803F0BF03137070BD254A137843F040031370224BE5
:402540001D8070BD22B3002321490B70012413310C7004390B7008390B7803F07F030B701A4B1B7813F0080F00D08DB9194B18800721013B1970164B1B7813F0010FFAD180
:4025800010490B7803F0FE030B700021104B19700C4B1B7813F0010F0DD00E4B1D800EB1032200E001220A4B1A70094B1B7813F0010FFAD170BD044B1D8002490B78134333
:4025C0000B7070BDA143004000410040024100400140004002400040044A137803F0DF03400100F0200018431070704700510040044A137803F0BF03800100F0400018434C
:402600001070704700510040014B1B689864704708ED00E04001C0B2014B1870704700BF02E400E00422014B1A60704700E100E00422014B1A60704780E100E010B5044661
:40264000FFF7F6FF2046FFF7DFFF0720FFF7E2FFFFF7E8FF10BD00BF08B5FFF775FB0A4A137843F02003137002F20112137843F010031370013A137843F010031370FFF713
:4026800067FB00F0BDF808BD98640040014B1878704700BF69650040014B1878704700BF68650040034B1B7813F0040FFAD0024B18707047696500404964004008B501E06D
:4026C0000A4B1B780A4B1B7813F0200FF8D1FFF73BFB084B1A7842F001021A701A7802F0FE021A70FFF734FB08BD00BF59640040686500409964004008B50F22074B1A7077
:40270000FFF7DCFFFFF7C2FFFFF7C6FF0422044B1A700022013B1A7008BD00BF886400408965004008B5054B1B7823B9FFF7E4FF0122024B1A70FFF78FFF08BDA485FF1FB2
:40274000044A137803F0BF03800100F0400018431070704750510040044A137803F0DF03400100F0200018431070704750510040F0B583B084468E4617461E460B4C022580
:4027800025700023009301932846614672462B46FFF768FB207839463246FFF725FB20782946FFF70FFB207803B0F0BD3281FF1F014B1B68D864704708ED00E04001C0B2E4
:4027C000014B1870704700BF03E400E00822014B1A60704700E100E00822014B1A60704780E100E010B50446FFF7F6FF2046FFF7DFFF0720FFF7E2FFFFF7E8FF10BD00BFDD
:40280000054A137843F0040313701032137843F004031370704700BFA2430040F0B583B086460F4616461D460B4C03232370002200920192184671463A46FFF713FB20789C
:4028400031462A46FFF7D0FA20780221FFF7BAFA207803B0F0BD00BF3381FF1F08B5FFF773FA0A4A137843F0200313700232137843F010031370013A137843F010031370D4
:40288000FFF766FA00F09EF808BD00BF94640040014B1878704700BF66640040014B1878704700BF65640040034B1B7813F0040FFAD0024B18707047666400404564004089
:4028C00008B501E00A4B1B780A4B1B7813F0200FF8D1FFF739FA084B1A7842F001021A701A7802F0FE021A70FFF732FA08BD00BF55640040656400409564004008B50F22C5
:40290000074B1A70FFF7DCFFFFF7C2FFFFF7C6FF0422044B1A700022013B1A7008BD00BF846400408664004008B5054B1B7823B9FFF7E4FF0122024B1A70FFF78FFF08BD23
:40294000A585FF1F044A137803F0DF03400100F0200018431070704720510040044A137803F0BF03800100F0400018431070704720510040014B1B681865704708ED00E073
:402980004001C0B2014B1870704700BF04E400E01022014B1A60704700E100E01022014B1A60704780E100E010B50446FFF7F6FF2046FFF7DFFF0720FFF7E2FFFFF7E8FFE3
:4029C00010BD00BF054A137843F0100313701032137843F010031370704700BFA2430040F0B583B086460F4616461D460A4C0023237000930193184671463A46FFF732FAD5
:402A0000207831462A46FFF7EFF920780221FFF7D9F9207803B0F0BD3481FF1F08B5FFF793F90A4A137843F0200313700132137843F010031370A2F58072137843F0100313
:402A40001370FFF785F900F09DF808BD96650040014B1878704700BF67650040014B1878704700BF67640040034B1B7813F0040FFAD0024B187070476765004047650040DA
:402A800008B501E00A4B1B780A4B1B7813F0200FF8D1FFF759F9084B1A7842F001021A701A7802F0FE021A70FFF752F908BD00BF57650040676400409765004008B50F22BD
:402AC000074B1A70FFF7DCFFFFF7C2FFFFF7C6FF0422044B1A700022A3F580731A7008BD866500408765004008B5054B1B7823B9FFF7E4FF0122024B1A70FFF78FFF08BDCD
:402B0000A685FF1F044A137803F0DF03400100F0200018431070704730510040044A137803F0BF03800100F0400018431070704730510040014B1B681864704708ED00E091
:402B40004001C0B2014B1870704700BF00E400E00122014B1A60704700E100E00122014B1A60704780E100E010B50446FFF7F6FF2046FFF7DFFF0720FFF7E2FFFFF7E8FF43
:402B800010BD00BF054A137843F0080313701032137843F008031370704700BFA243004010B50222114B1A7081220E3B1A70082202331A70042211331A70002401331C70BF
:402BC0004FF400420A4B1A600F200721FFF7E0F90F200849FFF7C8F91022074B1A70074B1C70074B1C70074B1C7010BDD649004080E100E0552C0000BC99FF1FC299FF1FA2
:402C0000C499FF1FC099FF1F08B5FFF79DF8064A137843F0040313701032137843F004031370FFF795F808BDA543004008B5074B1B7823B9FFF7B4FF0122044B1A70FFF7AF
:402C4000E3FF4FF40042024B1A6008BDA785FF1F00E100E038B5A44B1C78E4B2A34B1B7813F0400F00F0378114F0010F00F01B819E4B1B78453B052B00F21281DFE813F0BA
:402C800006008200100110010600DE0004F0DF0504F00A04082C42D1944B1B78DBB2452B35D1934B1B7813F0FF0F10D0914B1B681B78DBB2904A137004228B4B1A70012209
:402CC0008E4B1A704622894B1A702C46EBE08C4B1B7813F0020F0DD08A4A137843F00A0313706022814B1A704FF40042864B1A602C46D8E0854A137843F0100313701022CA
:402D0000834B1A700422023B1A702C46CBE00022754B1A704A22754B1A702C46C3E00A2C2BD1784A137843F0A0031370744B1B7813F0020F14D06D4B1B7813F0080F01D0A2
:402D4000092300E00A236F4A11780B4313706022664B1A704FF400426B4B1A602C46A2E06A4A137843F0100313701022684B1A700422023B1A702C4695E00020FFF7D2F876
:402D80002C4690E014F0020F35D15C4B1B78584A1278DBB2934210D2584A1378DBB255490968CB5CDBB254490B7004214E4B197013780133DBB2137075E0514B1B7813F03A
:402DC000020F0CD04F4A137843F00A0313706022464B1A704FF400424B4B1A6063E04B4A137843F0100313701022494B1A700422023B1A7057E0424B1B7813F0020F0CD01D
:402E0000404A137843F09A0313706022374B1A704FF400423C4B1A6045E03C4A137843F01003137010223A4B1A700422023B1A70344A137843F09003137034E0354A137879
:402E4000DBB2354908682C490978C9B2C15413780133DBB213701378304A1278DBB2934203D21022204B1A701DE0254B1B7813F0020F0CD0234A137843F009031370602269
:402E80001A4B1A704FF400421F4B1A600BE01F4A137843F0100313700022134B1A7002E00020FFF73FF814F0200F1CD00F4B1B7813F0080F01D0012300E00223114A1178D5
:402EC0000B431370114A137803F0EF0313701022064B1A7038BD054B1B7813F0100F02D11022024B1A7038BDD7490040BC99FF1FC399FF1FC899FF1FD8490040C099FF1F37
:402F0000C199FF1FC299FF1F80E100E0D6490040D9490040C499FF1FCC99FF1FD099FF1F1A4B1B78DBB2102B29D1194B1B7813F0080F26D14FF40042164B1A604000C0B245
:402F400029B140F001004922104B1A7002E045220E4B1A70104B1870012201331A700F4B1B7813F0010FFAD00C4B1B7803F00A030A2B08D11022054B1A700320704702203C
:402F80007047012070470020704700BFBC99FF1FD949004080E100E0D8490040D7490040164B1B7813F0040F23D04000C0B229B140F001004922124B1A7002E04522104B65
:402FC0001A70104B1870122201331A700422023B1A700D4B1B7813F0010FFAD00A4B1B7803F00A030A2B06D11022054B1A7003207047022070470020704700BFD949004012
:40300000BC99FF1FD8490040D74900400A4B1B7813F0040F0ED01023074A13700421023A1170064A1370064B1B7813F0210FFAD00020704702207047D9490040BC99FF1F5E
:40304000D7490040114B1B7813F0040F1BD0104B18700422013B1A7046220E4B1A700E4B1B7813F0010FFAD00B4B1B7813F0020F04D16022074B1A70002070476022054B44
:403080001A70032070470220704700BFD9490040D8490040BC99FF1FD7490040114B1B7813F0040F1BD0104B1B78DBB2492B05D100220E4B1A704A220B4B1A700B4B1B788F
:4030C00013F0010FFAD00A4B1B78DBB218B11021064A117004E06021034A117000E0002318467047D9490040BC99FF1FD7490040D8490040014B1B689865704708ED00E07A
:403100004001C0B2014B1870704700BF06E400E04022014B1A60704700E100E04022014B1A60704780E100E010B50446FFF7F6FF2046FFF7DFFF0720FFF7E2FFFFF7E8FFF9
:4031400010BD00BF044A137803F0FB03800000F0040018431070704760510040044A137803F0F703C00000F0080018431070704760510040014B1B685864704708ED00E0EA
:403180004001C0B2014B1870704700BF01E400E00222014B1A60704700E100E00222014B1A60704780E100E010B50446FFF7F6FF2046FFF7DFFF0720FFF7E2FFFFF7E8FFFA
:4031C00010BD00BF024A137843F080031370704775650040024A137803F07F031370704775650040014B1870704700BF05650040014B1870704700BF45650040014B1870C6
:40320000704700BF25650040014B1870704700BF85650040014B1878704700BF65650040014B1878704700BF5565004008B501E0FFF7F6FFFFF7EEFF10F0100FF8D108BD19
:4032400010B5114A137803F0C00343F0090313700E4C237843F001032370FF20FFF7C2FFFF20FFF7C5FFFF20FFF7C8FF0020FFF7CBFFFEF769FD237843F010032370FEF73D
:4032800067FDFFF7D3FF10BD756500409565004008B5054B1B7823B9FFF7D2FF0122024B1A70FFF78FFF08BDA885FF1F014B1B685865704708ED00E04001C0B2014B187051
:4032C000704700BF05E400E02022014B1A60704700E100E02022014B1A60704780E100E010B50446FFF7F6FF2046FFF7DFFF0720FFF7E2FFFFF7E8FF10BD00BF014B1868A8
:40330000704700BF9881FF1F0E4B70B51E460E4C0025E41AA410A54204D056F8253098470135F8E700F036FC084B094C1E46E41AA4100025A54204D056F825309847013503
:40334000F8E770BDA03B0000A03B0000A03B0000A83B000010B5431E0A44914204D011F8014B03F8014FF8E710BD03460244934202D003F8011BFAE770470000194B10B558
:403380001C68A36BD3B9182000F032F843F20E33A06303804AF6CD33438041F2342383804EF26D63C3804DF6EC630381052343810B23838101220023C0E90423A16B0A4C12
:4033C0000B6948695C43094A02FB0040A3FB02230132034443F10003C1E9042323F0004010BD00BF9881FF1F2DF451582D7F954C024B0146186800F003B800BF9881FF1F12
:4034000070B5CC1C24F0030408340C2C38BF0C24002C064603DA0C233360002070BD8C42F9D3204A136810461946A1B10A68121B0ED40B2A03D90A608B188C501FE08B4298
:403440000BBF5A684A6802605A6018BF0B4616E00B464968E9E7144D2B681BB9304600F025F828603046214600F020F8421C0346D1D0C51C25F0030585420AD11C6003F1F2
:403480000B001A1D20F00700821A0AD05142995070BD3046E91A00F009F80130BBD02B46ECE770BDB085FF1FAC85FF1F38B5064C0023054608462360FEF762F9431C02D15B
:4034C000236803B12B6038BDD499FF1F0000000080808080F001C3F001963601683A0155B00180B6020002B50402030004B1028010B40100B701C6C50124E40131E80840C5
:403500008A00002919A533C200A700E00EF0091312122B3C444B1B18171D21E10EF009130C0D273B444D0B17171D21360148F001C3F00169130011003601882900000000CB
:4035400043014301440144014401440144014501450145014501460146014601460146014701470147014701480148014801480149014901490149014A014A014A014A0157
:403580004B014B014B014B014C014C014C014C014D014D014D014E014E014E014E014F014F014F014F01500150015001510151015101510152015201520153015301530111
:4035C000530154015401540155015501550156015601560156015701570157015801580158015901590159015A015A015A015A015B015B015B015C015C015C015D015D01A6
:403600005D015E015E015E015F015F015F01600160016001610161016101620162016201630163016301640164016401650165016501660166016601670167016701000083
:40364000000000000100010001000200020002000300030003000400040004000500050005000600060006000700070007000800080008000900090009000A000A000A00A5
:403680000B000B000B000C000C000C000D000D000D000E000E000E000E000F000F000F00100010001000110011001100120012001200120013001300130014001400140019
:4036C0001500150015001500160016001600170017001700170018001800180019001900190019001A001A001A001A001B001B001B001C001C001C001C001D001D001D00AC
:403700001D001E001E001E001E001F001F001F001F002000200020002000210021002100210022002200220022002200230023002300230024002400240024002400250065
:4037400000003C027804B306EE08280B610D990FD01106143A166C189D1ACB1CF71E212148236C258E27AC29C72BDF2DF32F0332103418361D381C3A183C0E3E0040ED41AD
:40378000D443B74594476B493D4B084DCE4E8E504752FA53A6554C57EB58825A135C9D5D1F5F9A600E627A63DE643A668E67DA681E6A5A6B8D6CB86DDA6EF46F04710D729C
:4037C0000C730274EF74D375AE76807748780779BC79687A0B7BA37B337CB87C347DA67D0E7E6D7EC17E0C7F4C7F837FB07FD37FEC7FFB7F0080FB7FEC7FD37FB07F837F00
:403800004C7F0C7FC17E6D7E0E7EA67D347DB87C337CA37B0B7B687ABC79077948788077AE76D375EF7402740C730D720471F46FDA6EB86D8D6C5A6B1E6ADA688E673A662E
:40384000DE647A630E629A601F5F9D5D135C825AEB584C57A655FA5347528E50CE4E084D3D4B6B499447B745D443ED4100400E3E183C1C3A1D38183610340332F32FDF2D0E
:40388000C72BAC298E276C2548232121F71ECB1C9D1A6C183A160614D011990F610D280BEE08B30678043C020000C4FD88FB4DF912F7D8F49FF267F030EEFAEBC6E994E7A6
:4038C00063E535E309E1DFDEB8DC94DA72D854D639D421D20DD0FDCDF0CBE8C9E3C7E4C5E8C3F2C100C013BE2CBC49BA6CB895B6C3B4F8B232B172AFB9AD06AC5AAAB4A8FF
:4039000015A77EA5EDA363A2E1A0669FF29D869C229BC69972982697E295A6947393489226910C90FC8EF38DF48CFE8B118B2D8A52898088B887F98644869885F5845D84CD
:40394000CD834883CC825A82F28193813F81F480B4807D8050802D80148005800080058014802D8050807D80B480F4803F819381F2815A82CC824883CD835D84F5849885C2
:403980004486F9864878808852892D8A118BFE8BF48CF38DFC8E0C90269148927393A694E29526977298C699229B869CF29D669FE1A063A2EDA37EA515A7B4A85AAA06AC31
:4039C000B9AD72AF32B1F8B2C3B495B66CB849BA2CBC13BE00C0F2C1E8C3E4C5E3C7E8C9F0CBFDCD0DD021D239D454D672D894DAB8DCDFDE09E135E363E594E7C6E9FAEB01
:403A000030EE67F09FF2D8F412F74DF988FBC4FD00010001FFFF010101010101808386898C8F9295989B9EA2A5A7AAADB0B3B6B9BCBEC1C4C6C9CBCED0D3D5D7DADCDEE0F5
:403A4000E2E4E6E8EAEBEDEEF0F1F3F4F5F6F8F9FAFAFBFCFDFDFEFEFEFFFFFFFFFFFFFFFEFEFEFDFDFCFBFAFAF9F8F6F5F4F3F1F0EEEDEBEAE8E6E4E2E0DEDCDAD7D5D3CC
:403A8000D0CECBC9C6C4C1BEBCB9B6B3B0ADAAA7A5A29E9B9895928F8C898683807C797673706D6A6764615D5A5855524F4C494643413E3B393634312F2C2A282523211F9C
:403AC0001D1B1917151412110F0E0C0B0A090706050504030202010101000000000000000101010202030405050607090A0B0C0E0F1112141517191B1D1F212325282A2C80
:403B00002F313436393B3E414346494C4F5255585A5D6164676A6D707376797C035B00402443004040000000C84900401900105100401000405100401000C0510040100072
:403B400000000140000280020140000200050140800300090140000700140140000800400140000A004C0140000200500140200000020140D4090048800080040140540AF0
:403B80000048800080080140D40A00488000000043000000F8B500BFF8BC08BC9E4670474D000000FD170000F8B500BFF8BC08BC9E46704729000000C83B00000881FF1F59
:403BC000980000003818000000000000FF000000D899FF1FFF0000007F8000000F0000000000E02EC05D00001800000000366E0101FFFFFFFF00000000000000000000005D
:403C0000000000000000000000000000000000000000000000000000903B0000000000000000000000000000000000000000000000000000000000000000000000000000B9
:403C40000000000000000000000000000000000000000000000000003881FF1F0000000000000000000000000000000000000000000000000000000000000000000000006D
:403C80000000000000000000000000000000000000000000000000000000000000000000000000000000000000000000000000000000000000000000000000000000000004
:403CC00000000000000000000000000000000000000000000000000000000000000000000000000000000000000000000000000000000000000000000000000000000000C4
:403D00000000000000000000000000000000000000000000000000000000000000000000000000000000000000000000000000000000000000000000000000000000000083
:403D40000000000000000000000000000000000000000000000000000000000000000000000000000000000000000000000000000000000000000000000000000000000043
:020000040003F7
:0200000480007A
:400000000A5200400364004002650040450001403101014010020140460301400A0401403E0501404806014040070140140801403D090140020B0140040C0140040D014041
:400040005C140140481501405A1601404C1701404C18014044190140041B014011400140134101400B4201400A43014004440140114501400C460140084701400D4801401D
:4000800016490140174C0140154D014007500140045101400088011C10841115140118981914280529842C01820F840F880F850D860F010105010D01130115021902230171
:4000C00029012D02330137023F44544059045B045D105F018002811A820D8472859C8688876388108A608B408C4D8DB38F0491189302940D95189640989299819A649B782F
:400100009C4DA04DA11AA44DA518A702A902AB18AC01AD02AEB2B080B113B360B470B50FB60FB780BAA0BB20BE01BF40D409D604D804D904DB04DC11DD10DF0104010510AC
:40014000060207100C800D200E20150417411C011D101E48210823012458252026A227442A012B0A2C802D042E802F083218330136243701388039043A023C503D083E02A3
:400180005D085E415F206108630A67428740C0F0C2E0C4B0CAFDCCE7CEFBD6F0D89E83018B028D028E0191019701AA02B002B101B201B302BF01D804D904DC66DF01004085
:4001C00007550C800E6810041505160218501D081E41220423402504268027103102320833023682370438523D083E804480450847104C044D094E025681570562C0664065
:400200006CC06D046E206F0976029008930194829504960198049B449D089E839F11A226A480A504A618A70FA801AA90AB20B004B410B680B701C0F1C2F0C4B2CCD3CE5D80
:40024000D0E0D230D810E002EA100C01220130015602572458045B045C065D405F0101800422060207100D020E080F021080151817421A801D081E0A256027102E412F085F
:400280003480360837113D803E164480452A46094C014D084E084F025690570861106402661869186A556B4272028002820483088E0193419402A104A222A502A608AA40F9
:4002C000AE04B480C0F1C2D0C4F8CAB0CCF0CEF0D0D0D230D874E404E810011A0402051806080702080D09020B180C0D0D8210021133120D1344159C1703180D19181C010D
:400300001DC11E021F38200D211A240226042C0D2D182F02300F310F33E037133A023B0A54095604580459045B045C435D405F0181018410880E8C038E048F0194049501AE
:400340009609981099019C10A301A405A60AAD01B010B301B40FB820BE01BF04D440D804D904DB04DC01DD30DF010004012002020404058106400704081009840C200D80D8
:400380000E8012201410154919201B011E802108242225422608274129812E41302033043608375139413E965D085E025F60610862506601670182019255934194229908E5
:4003C0009A829B109D109F01A104A223A502A608A980AA40B080C0E7C2D7C4B4CA99CCF6CEF9D6F0D89EE410EA040E010F0112021D012101250129012F0130013301360295
:400400003F0456025728580459045B045C065D205F0100140202038004800E401334180419C01B801E401F422050211022412304272029402A022B082C202D402E022F08EE
:400440003020310833403740381039423B043C8040504110484049444A044B025181521266086C206D546E046F48760277029780A702AB02B340C08FC210C404CAFDCC1EB5
:40048000CE1FD007D20CD840E410EE80E404E64038203E1058045F011C088804E002EE800001019A04560521060907D8088009380A040BC00C040D980E800F0210841460A8
:4004C00015021798188419981B021C071D131E381F64219A2404280A29FC2A102B032C842D023008330F347F35E03680371338203B283E41580459045C335F0180048404EF
:400500008B0D99089C019E029F01A406A601AF02B102B301B407B504B708BA20C010C102C5D0C610C702C81AC9FFCAFFCBFFCDA0CF04D018D280D405D804D904DA04DB0462
:40054000DC53DD55DF01E040E2C0E440E540E6C0E8C0EAC0ECC0EEC00008014203040404064009890A040D8012091304150818011A4A1C0C1D102022219422082304265031
:40058000276029102A402B802E803020318033043610374039683A013F20460847404F01560857145E885F017680832089028A04914092049405950896429A419B049F40D4
:4005C000A020A109A204A380A415A580A704AD40B302C03FC28FC427CA1DCC3ECE2FD030D6D0E001E280EC800103030404120504066C0709080409050A1A0B0A0E401A01B7
:400600001C261D0E1E18240A26742E01310F321E3401366039023A083E1056025724580459045B045C335D305F01810D8310880989388A0690059114920A932B9510972799
:4006400098029A0D9B029C039E0CB33CB40FB503B908BA20C036C105C210C404C5DEC6FCC70BC81FC9FFCAFFCBFFCC22CEF0CF08D004D409D604D804D904DA04DB04DC44DB
:40068000DD33DF01E2C0E440E501E610E711E8C0E901EB11EC40ED01EE40EF0102080414054009420A080D800F081508174019101A081C101D401E081F04221023102780E5
:4006C00031023218378038023B103C2A4001410443024805490550405108525059045A425B206202630267086C206D436E046F84758076018380860287108C408E108F20F6
:400700009002940495499D919E109F04A142A208A301A420A580B280B320B520C0E2C2CBC4A0CC17CEE5D00BD20CD60FD829E008E204EA12000D0503070C080209050A045E
:400740000B0A0C020E081002120D180119021A021B0D200D240D280D2C0D2D092F06300F330F3A023B085440580459045B045C225D205F018004840185838734880A8995DD
:400780008A108B6A8C568D408E09910E940495109760980499409C609D40A004A140A407A638AA04AB40AC04ADF4AF09B10FB370B47FB780B820B902BB08BF40D409D6043A
:4007C000D804D904DB04DC22DD20DF0100140180034004100580074009880A040E800F04115013061554170218041E80210A2280271029802A022B082D803020310A334021
:400800003710381039403B043C103F044608471059045A92628063806610671283408E12901091549286931699849A129B429E08A020A180A202A308A508A840B404B60414
:40084000C0DFC257C4FFCA1DCC2FCE6ED60FD879E048EA03A804B102E001E80412081580170433043608378039803A083D083E8043108608C4E0CCE0CEF0D010E640050476
:400880003340354052025D205E026201860299209E809F90A504B520C020CC30D480D6A0D840E0403C809E809FD0A504A603AA01AD40B504CE20EA20EE1083108D109E80A2
:4008C0009F90A440A504A603AB40E220EE8006407F08C004DE0101010620538058405F206008664087208B08A708B240C00CD405D605D802E004EE010401450880088E2018
:4009000091019A209C489E40A780C004D001E6028D08900191019C409E40A508A780E40825108104830186809E809F80A514A602AC40B601C820E2E0EA400620238052025D
:4009400057205F01670882028B0493019E209F80A320A602AF20B220C020C840D4C0D680D880E280EE1010401380161079017F2086408F80902091019C409D089E409F8060
:40098000A780A801AF80B410B508C40EDE03E002EA02EC0203200508501056105B085F206202832090209A109B089D08A202A720AB08B202C00CD406D606D802EC04005E4B
:4009C00008420A5A0C44103C1A381C0400FD013F03C0105507003800564909060A001000044080000113002C8065041A040000008402000D6000000084000000000000004D
:400A0000840000007F0080700000800F02000088000044006205300004BE0CDF37FFFFFF2200F008040000000000022004040404111100010000C00040011011C001001187
:400A40004001400100000000000000000000000000000000079D3800049D0000561D09808402000D0A01106200E20008012000C0602200C4049D8000840000008000041021
:400A8000848D0010000080E07F10800F20000088000044104605300001BEFC0D1FFFFFFF2200F008040000004000000004040404444400010000C00040011011C001001151
:400AC000400140010000000000000000000000000000000010020300001302241821071810180042000000000018000000580002005A0000005A00000500080000420018D7
:400B0000001C00230040000F03131C2000008008000000413502400006DEFBC02FFFFFFF2200F008040000000000000004040400220200010000C00040011011C001001187
:400B4000400140010000000000000000000000000000000002FCFC009C000000200000200000000000000000010002FCFD009D000000000002FCFC009C000000010002FCEF
:400B8000FD009D00000000000200000F0D000000200000005C00180100010000000200000003000000000000000000000000000000000000000000000000000000000000E2
:400BC00000000000000000000000000000000000000000000000000000000000000000000000000000000000000000000000000000000000000000000000000000000000F5
:400C000000000000000000000000000000000000000000000000000000000000000000000000000000000000000000000000000000000000000000000000000000000000B4
:400C40000000000000000000000000000000000000000000000000000000000000000000000000000000000000000000000000000000000000000000000000000000000074
:400C80000000000000000000000000000000000000000000000000000000000000000000000000000000000000000000000000000000000000000000000000000000000034
:0200000490006A
:0400000000004005B7
:0200000490105A
:04000000BC90ACAF55
:0200000490303A
:020000002FFFD0
:0200000490402A
:4000000000000000000000000000000000000000000000000000000000000000000000000000000000000000000000000000000000000000000000000000000000000000C0
:400040000000000000000000000000000000000000000000000000000000000000000000000000000000000000000000000000000000000000000000000000000000000080
:400080000000000000000000000000000000000000000000000000000000000000000000000000000000000000000000000000000000000000000000000000000000000040
:4000C0000000000000000000000000000000000000000000000000000000000000000000000000000000000000000000000000000000000000000000000000000000000000
:0200000490501A
:0C00000000012E12306900012E2C6068F7
:00000001FF