:400000000080002011000000951700009517000008B5044B1A6803F53F5302331A6001F0D3FB00BFFA46004010B5054C237833B9044B13B10448AFF300800123237010BD50
:400040009881FF1F000000003C2E0000084B10B51BB108480849AFF300800848036803B910BD074B002BFBD0BDE81040184700BF000000003C2E00009C81FF1F0881FF1F4D
:400080000000000007490A780132074B83FB0203A3EBE27303EB4303D31ADBB20B7001234B707047B481FF1F56555555054B9A7812F0FF0F0CBF012200229A700122DA7023
:4000C000704700BFB481FF1F114B1B78DBB2022B0AD0104B1B78DBB2FF2B05D001220C4B1A71FF220B4B1A70094B1B78DBB2022B0CD1074A0123137153790133DBB253716C
:400100005379DBB2044AD25C024B1A70704700BFB481FF1F0C81FF1F8C33000010B586B062B602F099F901F0B5FD01F0B3FF02F0B3F8002000F02EFB012000F02BFB0220D4
:4001400000F028FB032000F025FB002000F0A6FA012000F0A3FA022000F0A0FA032000F09DFA02F01BFA00F077FE002000F0FEFB012000F0FBFB022000F0F8FB032000F0F1
:40018000F5FB6C4802F088FC6B4B18680390002301930293694802F0BFFC694802F058FD02F02EFD674B5B7813F0FF0F1BD0654C00236370207800F0010002F07BFC2078EB
:4001C000C0F3400002F082FC2378DBB2012B01D100F0B8FE5B4B1B78DBB2022B03D1594B987801F091F8574B1B7913F0FF0F06D00022544B1A71544B187802F0B7FC514B02
:400200001B7813F0FF0F6CD10DF1160005A90DF1120200F02FFEBDF8160001B20029B8BF4942BDF814301AB2002AB8BF5242914229DB80238DF80C308DF80E30000A1B1A0C
:400240008DF80D3080F080008DF80F00BDF8123013F4004F01D1002200E0B422ADF8062013F4004F01D1002300E0B423ADF80A3000F0E6FBADF804009DF80D0000F0E0FBAE
:40028000ADF8080028E080228DF80D208DF80F201B0A83EA02008DF80C00D31A8DF80E30BDF8123013F4004F01D1002200E0B422ADF8042013F4004F01D1002300E0B423EA
:4002C000ADF8083000F0BCFBADF806009DF80E0000F0B6FBADF80A0003A801A900F0B6FB60E7184B1B78DBB2012B0FD10DF1160005A90DF1120200F0BDFDBDF91600BDF910
:400300001410BDF9122000F073FE4BE70D4B1B78DBB2022B7FF446AF0A4BDB7813F0FF0F3FF440AF074B0022DA70987800F0ECFF38E700BF85000000402E0000C9000000F3
:40034000AD000000B481FF1F0C81FF1F824204D38A4201D9084670471046704710B50C46032832D8DFE800F0020E1A26002002F081F8204602F030F802F022F810F0010F05
:40038000FAD010BD002001F0DDFD204601F042FC01F034FC10F0010FFAD010BD002001F093FE204601F036FE01F028FE10F0010FFAD010BD002001F07DFF204601F02CFF64
:4003C00001F01EFF10F0010FFAD010BD10B50C46032832D8DFE800F0020E1A26012002F049F8204601F0F8FF01F0EAFF10F0010FFAD010BD012001F0A5FD204601F00AFCC1
:4004000001F0FCFB10F0010FFAD010BD012001F05BFE204601F0FEFD01F0F0FD10F0010FFAD010BD012001F045FF204601F0F4FE01F0E6FE10F0010FFAD010BD2DE9F04189
:4004400004460F4616461D46002040F23F113A46FFF77CFF804640F23F113246FFF776FF0746002040F2DF112A46FFF76FFF064640F2DF11BDF81820FFF768FF0546204694
:400480002A21FFF76BFF2046C8F30721FFF79EFF20465FFA88F1FFF799FF2046C7F30721FFF794FF2046F9B2FFF790FF20462B21FFF754FF2046C6F30721FFF787FF204664
:4004C000F1B2FFF783FF2046C5F30721FFF77EFF2046E9B2FFF77AFFBDE8F0812DE9F04F83B005468E4617461C46BDF834604FEA162AF6B2002040F23F117246FFF726FF5D
:40050000804640F23F113A46FFF720FF8146002040F2DF112246FFF719FF044640F2DF11BDF83020FFF712FF07460090284641464A462346FFF782FF28462C21FFF70EFFE7
:40054000032D00F28F80DFE805F00225486B012001F090FF002207E053009BB2434901F803A00133CE540132C8EB090B0BF1010B9345F1DC0AE0284600F0F8F94FEA4B0286
:4005800092B22846394900F087F901347B1CA342F1DC67E0012001F0D5FC002207E053009BB2334901F803A00133CE540132C8EB090B0BF1010B9345F1DC0AE0284600F0E9
:4005C000D5F94FEA4B0292B22846294900F064F901347B1CA342F1DC44E0012001F074FD002207E053009BB2224901F803A00133CE540132C8EB090B0BF1010B9345F1DC64
:400600000AE0284600F0B2F94FEA4B0292B22846184900F041F901347B1CA342F1DC21E0012001F047FE002207E053009BB2124901F803A00133CE540132C8EB090B0BF142
:40064000010B9345F1DC0AE0284600F08FF94FEA4B0292B22846084900F01EF901347B1CA342F1DC03B0BDE8F08F00BFA094FF1F2092FF1FA085FF1FA08FFF1F00B583B0BB
:4006800040F2DF1300930191002140F23F120B46FFF724FF03B05DF804FB00BF2DE9F041074602F04FFA032F2AD8DFE807F0020C1620002001F0EAFE0A2001F001FC0120E6
:4006C00001F0E4FE1CE0002001F048FC0A2001F0F7FB012001F042FC12E0002001F0E8FC0A2001F0EDFB012001F0E2FC08E0002001F0ECFD0A2001F0E3FB012001F0E6FDCF
:4007000038460121FFF72AFE782001F0D9FB00251BE06B1C124A12F805800235D45C38464146FFF71BFE08E06E1C38460C4B595DFFF74CFE013CE4B23546002CF4D1B8F16C
:40074000110F02D1782001F0BBFB682DE1D902F057FA38460021FFF791FFBDE8F08100BF442E00000022014B1A707047BA81FF1F0022014B5A707047BA81FF1F0022014B8B
:400780009A707047BA81FF1F0022014BDA707047BA81FF1F10B5032872D8DFE800F0021E3A560120014641F6FF724FF4804301F0CFFD344C207101F045FB60710121FE228E
:4007C000052301F059FB6079002146F2455201F067FB2D4801F080FE10BD0120014641F6FF724FF4804301F0CFF9264CA07101F029FBE0710121FE22052301F03DFBE0791B
:40080000002146F2454201F04BFB204801F0CCFB10BD0120014641F6FF724FF4804301F05FFC184C207201F00DFB60720121FE22052301F021FB607A002146F24A5201F05A
:400840002FFB134801F086FC10BD0120014641F6FF724FF4804301F099FC0A4CA07201F0F1FAE0720121FE22052301F005FBE07A002146F2494201F013FB064801F04CFD61
:4008800010BD00BFBA81FF1F65070000710700007D0700008907000070B50C46032862D8DFE800F0021A324A2F4D01262E7068791146FE22052301F0DFFA6879A1B246F239
:4008C000455201F0EDFA2879697901F073FA2879314601F027FA70BD234D01266E70E8791146FE22052301F0C7FAE879A1B246F2454201F0D5FAA879E97901F05BFAA8790D
:40090000314601F00FFA70BD174D0126AE70687A1146FE22052301F0AFFA687AA1B246F24A5201F0BDFA287A697A01F043FA287A314601F0F7F970BD0B4D0126EE70E87A8B
:400940001146FE22052301F097FAE87AA1B246F2494201F0A5FAA87AE97A01F02BFAA87A314601F0DFF970BDBA81FF1F00B583B000238DF807308DF8063003285AD8DFE825
:4009800000F002182E442D4B1B7813F0FF0F51D02A4B18790DF107010DF1060201F016FA9DF8063013F0030FF2D10022234B1A7040E0224B5B7813F0FF0F3BD01F4B9879B7
:4009C0000DF107010DF1060201F000FA9DF8063013F0030FF2D10022184B5A702AE0174B9B7813F0FF0F25D0144B187A0DF107010DF1060201F0EAF99DF8063013F0030FD8
:400A0000F2D100220D4B9A7014E00C4BDB7813F0FF0F0FD0094B987A0DF107010DF1060201F0D4F99DF8063013F0030FF2D10022024BDA7003B05DF804FB00BFBA81FF1F36
:400A4000014B33F810007047B02E00002DE9F04F97B007460E4600242FE036F8140000F0D5F9804616AB03EB840545F8100C36F8140000F0DDF945F8200CB8F1000FD4BFD7
:400A80000023012345F8403C3B5DC3EB03135B011B12C3F5F07345F8303CE5B240F2DF1300932846002140F23F120B46FFF7C6FC28462C21FFF752FC0134032CCDDD0120F6
:400AC00001F0D8FC012001F03DFA012001F0FCFA012001F0EFFB4FF00009AB4B0593DFF8C482AA4B0493AA4FAA4B0393AA4EAB4B0293AB4D77E1129BABB90E9B002B05DA4A
:400B00000A9B4B45CCBF0023012306E00A9BC3F5F0734B45D4BF002301230BB1002416E04FF4A07413E0A9F1F004640003EB830189010E9A04FB02145B0094FBF3F4002CD6
:400B400000DA0024B4F5A07F01DD4FF4A074069B23B14FF0000A4FF0FF0B03E04FF0FF0A4FF0000B0020FFF701FF002306E005F813B005EB430282F801B00133A342F6DBD5
:400B800006E005F814A005EB440383F801A00134B4F5A07FF5DB002029464FF42072FFF77BFE139BABB90F9B002B05DA0B9B4B45CCBF0023012306E00B9BC3F5F0734B45A6
:400BC000D4BF002301230BB1002416E04FF4A07413E0A9F1F004640003EB830189010F9A04FB02145B0094FBF3F4002C00DA0024B4F5A07F01DD4FF4A074079B23B14FF0A2
:400C0000000A4FF0FF0B03E04FF0FF0A4FF0000B0120FFF7ABFE002306E006F813B006EB430282F801B00133A342F6DB06E006F814A006EB440383F801A00134B4F5A07F2E
:400C4000F5DB012031464FF42072FFF725FE149BABB9109B002B05DA0C9B4B45CCBF0023012306E00C9BC3F5F0734B45D4BF002301230BB1002416E04FF4A07413E0A9F181
:400C8000F004640003EB83018901109A04FB02145B0094FBF3F4002C00DA0024B4F5A07F01DD4FF4A074089B23B14FF0000A4FF0FF0B03E04FF0FF0A4FF0000B0220FFF793
:400CC00055FE002306E007F813B007EB430282F801B00133A342F6DB06E007F814A007EB440383F801A00134B4F5A07FF5DB022039464FF42072FFF7CFFD159BABB9119BD7
:400D0000002B05DA0D9B4B45CCBF0023012306E00D9BC3F5F0734B45D4BF002301230BB1002416E04FF4A07413E0A9F1F004640003EB83018901119A04FB02145B0094FBD4
:400D4000F3F4002C00DA0024B4F5A07F01DD4FF4A074099B23B14FF0000A4FF0FF0B03E04FF0FF0A4FF0000B0320FFF7FFFD002306E008F813B008EB430282F801B001336E
:400D8000A342F6DB17E000BFA08AFF1F2088FF1FA085FF1F2097FF1F2092FF1F208DFF1FA094FF1FA08FFF1F08F814A008EB440383F801A00134B4F5A07FF5DB03204146E6
:400DC0004FF42072FFF768FD09F101094346DDF8148005933B46049F04933346039E03932B46029D0293B9F5F07FFFF684AE0020FFF7BCFD0120FFF7B9FD0220FFF7B6FD7A
:400E00000320FFF7B3FD17B0BDE8F08FC308064AA2FB03239B084FF4B47202FB130080B2024B33F910007047176CC116B03000005A30074A80FB0223C218C317C3EB222336
:400E40004FF4B47202FB1303024A32F913007047B7600BB6B030000008B56820002101F017FD6B2001F0A6FD012001F0A3FD01F085FD08BDF0B583B007460E46154668202D
:400E8000002101F005FD3B2001F094FD6820012101F03EFD002407E0012001F0B7FD02AB234403F8080C0134042CF5DD002001F0ADFD044601F062FD9DF800209DF8013070
:400EC00043EA02233B809DF802209DF8033043EA022333809DF8043044EA03242C8003B0F0BD00BF884203DB904202DD104670470846704781420EDD38B50D46044601F0E4
:400F0000F5FE291B013190FBF1F303FB1100204480B200B238BD00B2704700BF00280CDD10B5044601F0E2FE6300013390FBF3F202FB1300001B80B202E0002000B27047A5
:400F400000B210BDF0B583B0002405E020460021FFF794FB0134E4B2032CF7D9002535E000204FF49D71FFF7C5FF064600204FF4ED71FFF7BFFF4FEA061CDFF870E0630030
:400F80001F19BF002A01511B090139440EEB01072EF801C0010179800021B980F9803E817881B1B283B20A1D181D80B200904FF6FF700190284692B2FFF790FA0134E4B2B6
:400FC00000E00024132CCBD90135EDB2032DF8D9064B0022A3F8C023A3F8C223A3F8C423012283F8C62303B0F0BD00BFC881FF1F2DE9F04F8BB0089009911446BF4B93F883
:40100000C6330BB9FFF79EFFBC4AB2F9C0330898C31A83EAE371A1EBE371B2F9C233099DEB1A002BB8BF5B420B440794B2F9C413611A0029B8BF49420B440693A2F8C003BD
:40104000A2F8C253A2F8C443002303934EE1039A9046AB4B9B5C0BB1099900E00899A84B434493F9042002FB01F25213049293F90830079A03FB02F35B1305934FF0000B3C
:401080002CE15C46069BB3F5FA6F16DD4FF4A070FFF744FF4FEA4B0303EB0B05AD004FEA0812C8EB02031B012B44944D1D44A8804FF4A070FFF732FFE88063001A19920014
:4010C0004FEA0811C8EB01031B0113448B4A1A44938804990B449BB29380D1880598014489B2D1801BB2C3EB03131846002B01DA03F10F00C0F30F1004EB44029200C8EBCF
:4011000008131B0113447D4A134498800BB2C3EB03139946002B01DA03F10F09C9F30F19DFF8D8A165002544AD004FEA0813C8EB03031B011D440AEB050700B26FF07F01AE
:401140008022FFF7CFFE0646B8800FFA89F06FF07F018022FFF7C6FEF8803AF80520324492B22AF805207B8803449BB27B8012F4004F14D0554662001719BF004FEA0811F0
:40118000C8EB010212013A44A91800272AF80270764206EBD676C6F34F068E8018E012B241F2B0318A4213DD544D62001719BF004FEA0811C8EB010212013A44A91841F250
:4011C000B037AF52764206EBD676C6F34F068E8013F4004F13D06300191989004FEA0812C8EB02031B010B44444A134400225A80404200EBD070C0F34F00D88018E01BB27C
:4012000041F6B052934213DD6300191989004FEA0812C8EB02031B010B44384A134441F6B0525A80404200EBD070C0F34F00D88032486300191989004FEA0812C8EB020386
:401240001B010B44C218C35EB2F90270C7F30F1711890AB2C3F30F100290B2EB231F0DD104EB44029200C8EB08131B011344254A1344B3F902203BB29A422BD089B2DFF81F
:401280007CA04FEA440909EB0406B6004FEA0815C8EB05031B011E44564473890A1D181D80B2009000200190039892B2FFF716F9BDF80810BBB20A1D181D80B200904FF663
:4012C000FF700190039892B2FFF708F9BDF80830338177810BF101035FFA83FBBBF1130F7FF6CFAE039B0133DBB20393039B032B7FF6ADAE0BB0BDE8F08F00BFC881FF1F52
:4013000080330000D081FF1F10B582B060B10024FFE02046FFF72AFB204643F62A21FFF7ADF90134E4B200E00024032CF1D900240EE02046FFF71AFB3B2300930023019386
:401340002046194640F23F12FFF7C8F80134E4B2032CEED9002411E02046FFF707FB40F2A313009342F6596301932046282140F217127823FFF7B2F80134E4B2032CEBD935
:4013800000240FE02046FFF7F1FAB323009340F2B34301932046282163227823FFF79EF80134E4B2032CEDD9002410E02046FFF7DDFAB323009340F2B34301932046DC21C4
:4013C00040F217127823FFF789F80134E4B2032CECD900240FE02046FFF7C8FAEF23009347F29E73019320466421DB22B423FFF775F80134E4B2032CEDD9002411E02046B0
:40140000FFF7B4FA40F2A313009347F29E73019320466421DB224FF4B473FFF75FF80134E4B2032CEBD9002410E02046FFF79EFA40F26713009347F29E730193204628217E
:401440006322F023FFF74AF80134E4B2032CECD9002411E02046FFF789FA40F26713009347F29E7301932046DC2140F21712F023FFF734F80134E4B2032CEBD9002410E007
:401480002046FFF773FA40F2671300934FF6FF73019320466421DB22F023FFF71FF80134E4B2032CECD9002410E02046FFF75EFA40F22B1300934CF6FF7301932046642114
:4014C0009F22F023FFF70AF80134E4B2032CECD9002411E02046FFF749FA40F2671300934CF6FF7301932046A021DB224FF49673FEF7F4FF0134E4B2032CEBD948E1204681
:40150000FFF734FA204644F68C21FFF7B7F80134E4B2032CF3D9002411E02046FFF726FA40F2A313009348F2042301932046002140F23F127823FEF7D1FF0134E4B2032C6A
:40154000EBD900240EE02046FFF710FA3B230093002301932046194640F23F12FEF7BEFF0134E4B2032CEED9002411E02046FFF7FDF940F26713009348F686230193204645
:40158000002140F23F12B423FEF7A8FF0134E4B2032CEBD9002411E02046FFF7E7F94FF4D27300934EF6894301932046282140F217127823FEF792FF0134E4B2032CEBD95D
:4015C00000240FE02046FFF7D1F9B32300934CF2043301932046282163227823FEF77EFF0134E4B2032CEDD9002410E02046FFF7BDF9B32300934CF2043301932046DC2144
:4016000040F217127823FEF769FF0134E4B2032CECD900240FE02046FFF7A8F9EF2300934FF24C63019320466421DB22B423FEF755FF0134E4B2032CEDD9002411E020461C
:40164000FFF794F940F2A31300934FF24C63019320466421DB224FF4B473FEF73FFF0134E4B2032CEBD9002410E02046FFF77EF940F2671300934FF24C630193204628214C
:401680006322F023FEF72AFF0134E4B2032CECD9002411E02046FFF769F940F2671300934FF24C6301932046DC2140F21712F023FEF714FF0134E4B2032CEBD9002410E074
:4016C0002046FFF753F940F2671300934FF6FA73019320466421DB22F023FEF7FFFE0134E4B2032CECD9002411E02046FFF73EF940F2671300934FF6F17301932046A021C6
:40170000DB224FF49673FEF7E9FE0134E4B2032CEBD9002410E02046FFF728F940F22B1300934FF6F1730193204664219F22F023FEF7D4FE0134E4B2032CECD900240FE09D
:401740002046FFF713F97723009344F22A2301932046002127223C23FEF7C0FE0134E4B2032CEDD9002411E02046FFF7FFF87723009344F22A23019320464FF48C7140F297
:401780003F123C23FEF7AAFE0134E4B2032CEBD902B010BDFEE700BF08B5094B1A681044084BC31A802B02DC054B186005E001F05DFA0C2303604FF0FF32104608BD00BF8A
:4017C0001081FF1FC099FF1F08B5104E104D16E029686B68AC68002204E051F8040B43F8040B0432A242F8D1E868002203E0002143F8041B04328242F9D11035013E002E0C
:40180000E6D101F039FAFEF789FCFEE7010000002C35000008B5134A134B1A60134A136843F40073136000230AE0032B03D8104A52F8231000E00F490F4A42F82310013306
:401840002F2BF2D90D4B1A780D4B1A700A4A0D4B1A6000F0D1F800F04BFA00220A4B1A6008BD00BF0004FA050CED00E014ED00E000000000951700000080FF1FBC76004075
:401880000481FF1F08ED00E00081FF1FFEE700BFF0B40022174611E050F82760F3B226F0FF0608E001EB420511F812406D78A5550132013BDBB2002BF4D10137222FEBD93C
:4018C000F0BC7047064B1B78DBB203F00701054A11701B09013213704422034B1A707047CF0100496E5800407658004008B50A46002101F0F2F908BD38B50024324B1C8054
:401900005823324A137002321480023213700232148002321370023214800232137001222B4B1A80182202331A704EF65F2202331A80192502331D70202202331A801B22A2
:4019400002331A70022203F266231A7008224FF040231A70032103F5007319701D4B1B78DBB21D490B701D4B1A8041F25122023B1A800CE01A4B1B7803F0010343EA4404D6
:4019800004F003044FF4F07000F0A2F9013D0DB1032CEFD115B90320FFF778FF114B4FF480721A8007221A7000220F490A704820023108701A700222033B1A700B4A13787A
:4019C00043F07F03137038BD80400040824000409040004008010049A146004022420040254200400440004006400040A243004008B501F067F908BD70B572B6464A13787A
:401A000043F00403137000240CE0444963001A1952000A4423445B00C8589188FFF766FF0134E4B20C2CF0D9002410E03B49A3001A1952000A4452F8500F23445B000B442C
:401A40005168B3F85820FFF7D3FF0134E4B2032CECD94FF090403249FFF71AFF31480421FFF744FF304831490422FFF7C1FF304830490422FFF7BCFF2F4830490422FFF7F1
:401A8000B7FF2F4A137843F0020313701032137843F0020313702B4C237843F040032370A2F58632513A137843F010031370264826490822FFF79CFF254826490A22FFF74A
:401AC00097FF254825490A22FFF792FF244825490822FFF78DFF244824490A22FFF788FF234824490A22FFF783FF234A137843F008031370214E01253570FFF7FDFE8123B6
:401B000033701F4B1D70FFF7DDFE1E4821460E22FFF76EFF70BD00BFE84600408C3400008C0000480076004008760040300A004810760040340A004818760040380A004852
:401B400003500140A043004002510040F0090048F0510040F809004820510040040A004832510040100A004850510040180A004860510040240A0048224300400048004005
:401B800004000840B0430040F0B583B086460F4616461D460B4C01232370002200920192184671463A4600F029F9207831462A4600F0E6F82078022100F0D0F8207803B0E7
:401BC000F0BD00BF1481FF1F08B500F089F80A4A137843F0200313700132137843F010031370023A137843F01003137000F07CF800F05EF808BD00BF95640040014B187886
:401C0000704700BF66640040014B1878704700BF64640040034B1B7813F0040FFAD0024B18707047666400404564004008B501E00A4B1B780A4B1B7813F0200FF8D100F031
:401C40004FF8084B1A7842F001021A701A7802F0FE021A7000F048F808BD00BF55640040646400409564004008B50F22074B1A70FFF7DCFFFFF7C2FFFFF7C6FF0422044BFB
:401C80001A700022023B1A7008BD00BF856400408664004008B5054B1B7823B9FFF7E4FF0122024B1A70FFF78FFF08BD9085FF1F054A137843F0010313701032137843F07B
:401CC00001031370704700BFA2430040000000000230800803D000BF01380046FCD17047EFF3108072B6704780F31088704700BF0B4A7F2313708021517007E0DA0002F111
:401D0000804202F5F042013BDBB21370002BF5D1DB0003F1804303F5F04300221A7070471881FF1F172815D831B103010A495A5C42F020025A5405E0030107495A5C02F0A6
:401D4000DF025A540001044A835C43F00103835400207047012070471070004017280BD80001064A835C03F0F10301F0070143EA4101815400207047012070471070004044
:401D800041F6FF73994201D14FF4005141F6FF739A4201D14FF40052172808D8C00000F1804000F5EC408180C280002070470120704700BF172805D8034B03EB00104172D0
:401DC00000207047012070471070004017280FD831B1094B03EB00135B7A03F07F030B7042B1054B03EB0010037A13700020704701207047002070471070004017281BD899
:401E000010B4C00000F1804404F5EC44D201D2B201F07F01114321709DF804201201D2B203F00F03134363709DF8083003F00F03A3700020E07001E0012070475DF8044B63
:401E4000704700BF10B5FFF74BFF0A4B5B78182B0BD9084A1478013B5370E30003F1804303F5F0431B78137000E0FF24FFF73CFF204610BD1881FF1F10F0800F0CD111F451
:401E8000704F0BD1C00000F1804000F5F04001808270C37000207047012070470120704710F0800F08D1C00000F1804000F5F0408180C280002070470120704701BE70475E
:401EC00010B5044605E0084B1868FFF701FFA4F50044B4F5004FF6D8034B586800FB04F0FFF7F6FE10BD00BF2081FF1F70B504460E46074B1D681F2802D90020FFF7DEFFA1
:401F000004F01F04103455F8240045F8246070BD08ED00E038B504460D46072902D90020FFF7CCFF1F2C02D90020FFF7C7FF04F01F0000F1604000F564406D01EDB20570DB
:401F400038BD00BF044A137803F0DF03400100F0200018431070704700510040044A137803F0BF03800100F0400018431070704700510040014B1B689864704708ED00E0D2
:401F80004001C0B2014B1870704700BF02E400E00422014B1A60704700E100E00422014B1A60704780E100E010B50446FFF7F6FF2046FFF7DFFF0720FFF7E2FFFFF7E8FF07
:401FC00010BD00BF08B5FFF78BFE0B4A137843F020031370A2F20112137843F01003137002F58172137843F010031370FFF77CFE00F0BEF808BD00BF99650040014B187873
:40200000704700BF68640040014B1878704700BF6A650040034B1B7813F0040FFAD0024B18707047686400404A65004008B501E00A4B1B780A4B1B7813F0200FF8D1FFF716
:402040004FFE084B1A7842F001021A701A7802F0FE021A70FFF748FE08BD00BF5A6500406A6500409A65004008B50F22074B1A70FFF7DCFFFFF7C2FFFFF7C6FF0422044BD2
:402080001A70002203F581731A7008BD896500408864004008B5054B1B7823B9FFF7E4FF0122024B1A70FFF78DFF08BD9185FF1F044A137803F0BF03800100F0400018437B
:4020C0001070704750510040044A137803F0DF03400100F0200018431070704750510040F0B583B084468E4617461E460B4C022525700023009301932846614672462B4684
:40210000FFF77CFE207839463246FFF739FE20782946FFF723FE207803B0F0BD3081FF1F014B1B68D864704708ED00E04001C0B2014B1870704700BF03E400E00822014BBD
:402140001A60704700E100E00822014B1A60704780E100E010B50446FFF7F6FF2046FFF7DFFF0720FFF7E2FFFFF7E8FF10BD00BF054A137843F0020313701032137843F055
:4021800002031370704700BFA2430040F0B583B086460F4616461D460B4C03232370002200920192184671463A46FFF727FE207831462A46FFF7E4FD20780221FFF7CEFD6B
:4021C000207803B0F0BD00BF3181FF1F08B5FFF787FD0A4A137843F020031370FF32137843F0100313700332137843F010031370FFF77AFD00F09EF808BD00BF99640040A7
:40220000014B1878704700BF68650040014B1878704700BF6B650040034B1B7813F0040FFAD0024B18707047686500404964004008B501E00A4B1B780A4B1B7813F0200FF6
:40224000F8D1FFF74DFD084B1A7842F001021A701A7802F0FE021A70FFF746FD08BD00BF596400406B6500409964004008B50F22074B1A70FFF7DCFFFFF7C2FFFFF7C6FF8F
:402280000422044B1A70002203331A7008BD00BF896400408865004008B5054B1B7823B9FFF7E4FF0122024B1A70FFF78FFF08BD9285FF1F044A137803F0DF03400100F0B3
:4022C000200018431070704720510040044A137803F0BF03800100F0400018431070704720510040014B1B681865704708ED00E04001C0B2014B1870704700BF04E400E05C
:402300001022014B1A60704700E100E01022014B1A60704780E100E010B50446FFF7F6FF2046FFF7DFFF0720FFF7E2FFFFF7E8FF10BD00BF054A137843F0080313701032C5
:40234000137843F008031370704700BFA2430040F0B583B086460F4616461D460A4C0023237000930193184671463A46FFF746FD207831462A46FFF703FD20780221FFF797
:40238000EDFC207803B0F0BD3281FF1F08B5FFF7A7FC0A4A137843F020031370FF32137843F010031370013A137843F010031370FFF79AFC00F09EF808BD00BF9764004078
:4023C000014B1878704700BF66650040014B1878704700BF65650040034B1B7813F0040FFAD0024B18707047666500404565004008B501E00A4B1B780A4B1B7813F0200F42
:40240000F8D1FFF76DFC084B1A7842F001021A701A7802F0FE021A70FFF766FC08BD00BF55650040656500409565004008B50F22074B1A70FFF7DCFFFFF7C2FFFFF7C6FF9B
:402440000422044B1A700022013B1A7008BD00BF876400408665004008B5054B1B7823B9FFF7E4FF0122024B1A70FFF78FFF08BD9385FF1F044A137803F0DF03400100F0EE
:40248000200018431070704730510040044A137803F0BF03800100F0400018431070704730510040014B1B681864704708ED00E04001C0B2014B1870704700BF00E400E07F
:4024C0000122014B1A60704700E100E00122014B1A60704780E100E010B50446FFF7F6FF2046FFF7DFFF0720FFF7E2FFFFF7E8FF10BD00BF054A137843F004031370103226
:40250000137843F004031370704700BFA243004010B50222114B1A7081220E3B1A70082202331A70042211331A70002401331C704FF400420A4B1A600F200721FFF7EAFC2B
:402540000F200849FFF7D2FC1022074B1A70074B1C70074B1C70074B1C7010BDD649004080E100E0C5250000A099FF1FA699FF1FA899FF1FA499FF1F08B5FFF7B1FB064AFB
:40258000137843F0040313701032137843F004031370FFF7A9FB08BDA543004008B5074B1B7823B9FFF7B4FF0122044B1A70FFF7E3FF4FF40042024B1A6008BD9485FF1F7F
:4025C00000E100E038B5A44B1C78E4B2A34B1B7813F0400F00F0378114F0010F00F01B819E4B1B78453B052B00F21281DFE813F006008200100110010600DE0004F0DF0518
:4026000004F00A04082C42D1944B1B78DBB2452B35D1934B1B7813F0FF0F10D0914B1B681B78DBB2904A137004228B4B1A7001228E4B1A704622894B1A702C46EBE08C4BB8
:402640001B7813F0020F0DD08A4A137843F00A0313706022814B1A704FF40042864B1A602C46D8E0854A137843F0100313701022834B1A700422023B1A702C46CBE0002209
:40268000754B1A704A22754B1A702C46C3E00A2C2BD1784A137843F0A0031370744B1B7813F0020F14D06D4B1B7813F0080F01D0092300E00A236F4A11780B4313706022DF
:4026C000664B1A704FF400426B4B1A602C46A2E06A4A137843F0100313701022684B1A700422023B1A702C4695E00020FFF7E6FB2C4690E014F0020F35D15C4B1B78584ADB
:402700001278DBB2934210D2584A1378DBB255490968CB5CDBB254490B7004214E4B197013780133DBB2137075E0514B1B7813F0020F0CD04F4A137843F00A031370602243
:40274000464B1A704FF400424B4B1A6063E04B4A137843F0100313701022494B1A700422023B1A7057E0424B1B7813F0020F0CD0404A137843F09A0313706022374B1A7003
:402780004FF400423C4B1A6045E03C4A137843F01003137010223A4B1A700422023B1A70344A137843F09003137034E0354A1378DBB2354908682C490978C9B2C15413786A
:4027C0000133DBB213701378304A1278DBB2934203D21022204B1A701DE0254B1B7813F0020F0CD0234A137843F00903137060221A4B1A704FF400421F4B1A600BE01F4AD0
:40280000137843F0100313700022134B1A7002E00020FFF753FB14F0200F1CD00F4B1B7813F0080F01D0012300E00223114A11780B431370114A137803F0EF03137010229F
:40284000064B1A7038BD054B1B7813F0100F02D11022024B1A7038BDD7490040A099FF1FA799FF1FAC99FF1FD8490040A499FF1FA599FF1FA699FF1F80E100E0D649004025
:40288000D9490040A899FF1FB099FF1FB499FF1F1A4B1B78DBB2102B29D1194B1B7813F0080F26D14FF40042164B1A604000C0B229B140F001004922104B1A7002E045220D
:4028C0000E4B1A70104B1870012201331A700F4B1B7813F0010FFAD00C4B1B7803F00A030A2B08D11022054B1A700320704702207047012070470020704700BFA099FF1FEB
:40290000D949004080E100E0D8490040D7490040164B1B7813F0040F23D04000C0B229B140F001004922124B1A7002E04522104B1A70104B1870122201331A700422023BC1
:402940001A700D4B1B7813F0010FFAD00A4B1B7803F00A030A2B06D11022054B1A7003207047022070470020704700BFD9490040A099FF1FD8490040D74900400A4B1B785A
:4029800013F0040F0ED01023074A13700421023A1170064A1370064B1B7813F0210FFAD00020704702207047D9490040A099FF1FD7490040114B1B7813F0040F1BD0104B72
:4029C00018700422013B1A7046220E4B1A700E4B1B7813F0010FFAD00B4B1B7813F0020F04D16022074B1A70002070476022054B1A70032070470220704700BFD949004018
:402A0000D8490040A099FF1FD7490040114B1B7813F0040F1BD0104B1B78DBB2492B05D100220E4B1A704A220B4B1A700B4B1B7813F0010FFAD00A4B1B78DBB218B1102143
:402A4000064A117004E06021034A117000E0002318467047D9490040A099FF1FD7490040D8490040014B1B689865704708ED00E04001C0B2014B1870704700BF06E400E0A1
:402A80004022014B1A60704700E100E04022014B1A60704780E100E010B50446FFF7F6FF2046FFF7DFFF0720FFF7E2FFFFF7E8FF10BD00BF044A137803F0FB03800000F081
:402AC000040018431070704760510040044A137803F0F703C00000F0080018431070704760510040014B1B685864704708ED00E04001C0B2014B1870704700BF01E400E075
:402B00000222014B1A60704700E100E00222014B1A60704780E100E010B50446FFF7F6FF2046FFF7DFFF0720FFF7E2FFFFF7E8FF10BD00BF024A137843F0800313707047EF
:402B400074650040024A137803F07F031370704774650040014B1870704700BF07650040014B1870704700BF47650040014B1870704700BF27650040014B1870704700BF11
:402B800087650040014B1878704700BF67650040014B1878704700BF5765004008B501E0FFF7F6FFFFF7EEFF10F0100FF8D108BD10B5114A137803F0C00343F00903137001
:402BC0000E4C237843F001032370FF20FFF7C2FFFF20FFF7C5FFFF20FFF7C8FF0020FFF7CBFFFFF77DF8237843F010032370FFF77BF8FFF7D3FF10BD746500409765004079
:402C000008B5054B1B7823B9FFF7D2FF0122024B1A70FFF78FFF08BD9585FF1F014B1B685865704708ED00E04001C0B2014B1870704700BF05E400E02022014B1A60704739
:402C400000E100E02022014B1A60704780E100E010B50446FFF7F6FF2046FFF7DFFF0720FFF7E2FFFFF7E8FF10BD00BF014B1868704700BF9481FF1F0E4B70B51E460E4C47
:402C80000025E41AA410A54204D056F8253098470135F8E700F038FC084B094C1E46E41AA4100025A54204D056F8253098470135F8E770BD1435000014350000143500008A
:402CC0001C35000010B5431E0A44914204D011F8014B03F8014FF8E710BD03460244934202D003F8011BFAE770470000194B10B51C68A36BD3B9182000F032F843F20E3328
:402D0000A06303804AF6CD33438041F2342383804EF26D63C3804DF6EC630381052343810B23838101220023C0E90423A16B0A4C0B6948695C43094A02FB0040A3FB022367
:402D40000132034443F10003C1E9042323F0004010BD00BF9481FF1F2DF451582D7F954C024B0146186800F003B800BF9481FF1F70B5CC1C24F0030408340C2C38BF0C24F4
:402D8000002C064603DA0C233360002070BD8C42F9D3204A136810461946A1B10A68121B0ED40B2A03D90A608B188C501FE08B420BBF5A684A6802605A6018BF0B4616E06A
:402DC0000B464968E9E7144D2B681BB9304600F025F828603046214600F020F8421C0346D1D0C51C25F0030585420AD11C6003F10B001A1D20F00700821A0AD051429950A6
:402E000070BD3046E91A00F009F80130BBD02B46ECE770BD9C85FF1F9885FF1F38B5064C0023054608462360FEF7B6FC431C02D1236803B12B6038BDB899FF1F00000000CF
:402E400080808080F001C3F001963601683A0155B00180B6020002B50402030004B1028010B40100B701C6C50124E40131E808408A00002919A533C200A700E00EF009138E
:402E800012122B3C444B1B18171D21E10EF009130C0D273B444D0B17171D21360148F001C3F001691300110036018829000000004301430144014401440144014401450132
:402EC000450145014501460146014601460146014701470147014701480148014801480149014901490149014A014A014A014A014B014B014B014B014C014C014C014C01A1
:402F00004D014D014D014E014E014E014E014F014F014F014F015001500150015101510151015101520152015201530153015301530154015401540155015501550156014F
:402F40005601560156015701570157015801580158015901590159015A015A015A015A015B015B015B015C015C015C015D015D015D015E015E015E015F015F015F016001DC
:402F800060016001610161016101620162016201630163016301640164016401650165016501660166016601670167016701000000000000010001000100020002000200FD
:402FC0000300030003000400040004000500050005000600060006000700070007000800080008000900090009000A000A000A000B000B000B000C000C000C000D000D00D6
:403000000D000E000E000E000E000F000F000F0010001000100011001100110012001200120012001300130013001400140014001500150015001500160016001600170051
:4030400017001700170018001800180019001900190019001A001A001A001A001B001B001B001C001C001C001C001D001D001D001D001E001E001E001E001F001F001F00ED
:403080001F002000200020002000210021002100210022002200220022002200230023002300230024002400240024002400250000003C027804B306EE08280B610D990F2C
:4030C000D01106143A166C189D1ACB1CF71E212148236C258E27AC29C72BDF2DF32F0332103418361D381C3A183C0E3E0040ED41D443B74594476B493D4B084DCE4E8E506D
:403100004752FA53A6554C57EB58825A135C9D5D1F5F9A600E627A63DE643A668E67DA681E6A5A6B8D6CB86DDA6EF46F04710D720C730274EF74D375AE76807748780779A0
:40314000BC79687A0B7BA37B337CB87C347DA67D0E7E6D7EC17E0C7F4C7F837FB07FD37FEC7FFB7F0080FB7FEC7FD37FB07F837F4C7F0C7FC17E6D7E0E7EA67D347DB87C6D
:40318000337CA37B0B7B687ABC79077948788077AE76D375EF7402740C730D720471F46FDA6EB86D8D6C5A6B1E6ADA688E673A66DE647A630E629A601F5F9D5D135C825A7D
:4031C000EB584C57A655FA5347528E50CE4E084D3D4B6B499447B745D443ED4100400E3E183C1C3A1D38183610340332F32FDF2DC72BAC298E276C2548232121F71ECB1C2B
:403200009D1A6C183A160614D011990F610D280BEE08B30678043C020000C4FD88FB4DF912F7D8F49FF267F030EEFAEBC6E994E763E535E309E1DFDEB8DC94DA72D854D665
:4032400039D421D20DD0FDCDF0CBE8C9E3C7E4C5E8C3F2C100C013BE2CBC49BA6CB895B6C3B4F8B232B172AFB9AD06AC5AAAB4A815A77EA5EDA363A2E1A0669FF29D869C57
:40328000229BC69972982697E295A6947393489226910C90FC8EF38DF48CFE8B118B2D8A52898088B887F98644869885F5845D84CD834883CC825A82F28193813F81F480FF
:4032C000B4807D8050802D80148005800080058014802D8050807D80B480F4803F819381F2815A82CC824883CD835D84F58498854486F9864878808852892D8A118BFE8B81
:40330000F48CF38DFC8E0C90269148927393A694E29526977298C699229B869CF29D669FE1A063A2EDA37EA515A7B4A85AAA06ACB9AD72AF32B1F8B2C3B495B66CB849BA82
:403340002CBC13BE00C0F2C1E8C3E4C5E3C7E8C9F0CBFDCD0DD021D239D454D672D894DAB8DCDFDE09E135E363E594E7C6E9FAEB30EE67F09FF2D8F412F74DF988FBC4FD1F
:4033800000010001FFFF010101010101808386898C8F9295989B9EA2A5A7AAADB0B3B6B9BCBEC1C4C6C9CBCED0D3D5D7DADCDEE0E2E4E6E8EAEBEDEEF0F1F3F4F5F6F8F9F9
:4033C000FAFAFBFCFDFDFEFEFEFFFFFFFFFFFFFFFEFEFEFDFDFCFBFAFAF9F8F6F5F4F3F1F0EEEDEBEAE8E6E4E2E0DEDCDAD7D5D3D0CECBC9C6C4C1BEBCB9B6B3B0ADAAA774
:40340000A5A29E9B9895928F8C898683807C797673706D6A6764615D5A5855524F4C494643413E3B393634312F2C2A282523211F1D1B1917151412110F0E0C0B0A090706E1
:40344000050504030202010101000000000000000101010202030405050607090A0B0C0E0F1112141517191B1D1F212325282A2C2F313436393B3E414346494C4F525558E5
:403480005A5D6164676A6D707376797CC84900401900105100401000405100401000C05100401000000001408004000501408003000901400007001401408000001501409D
:4034C0000005801A0140800100400140000A004C01400002005001402000000080040140F007004880008008014070080048800080140140F00800488000001A01407009AA
:403500000048800043000000F8B500BFF8BC08BC9E4670474D00000015180000F8B500BFF8BC08BC9E46704729000000403500000881FF1F900000002818000000000000F3
:4035400000000000FF000000C099FF1FFF0000007F8000000F0000000000E02EC05D00001800000000366E01FFFFFF000000000000000000000000000000000000000000E3
:4035800000000000000000000000000004350000000000000000000000000000000000000000000000000000000000000000000000000000000000000000000000000000D2
:4035C0000000000000000000000000003481FF1F000000000000000000000000000000000000000000000000000000000000000000000000000000000000000000000000F8
:40360000000000000000000000000000000000000000000000000000000000000000000000000000000000000000000000000000000000000000000000000000000000008A
:40364000000000000000000000000000000000000000000000000000000000000000000000000000000000000000000000000000000000000000000000000000000000004A
:40368000000000000000000000000000000000000000000000000000000000000000000000000000000000000000000000000000000000000000000000000000000000000A
:4036C00000000000000000000000000000000000000000000000000000000000000000000000000000000000000000000000000000000000000000000000000000000000CA
:020000040003F7
:0200000480007A
:400000000A5200400364004002650040010101400A0401403105014047060140410701400508014033090140030B0140020D0140010F014014140140471501405A16014044
:4000400046170140561801404D190140131A0140451B01400F4001400F4101400F4201400A430140024401400E4501400A460140074701400B480140174901400D4C014032
:40008000194D01400650014004510140001001981018119C140118881980280529842C01850F870F890F870D890FE204070111011B0231023501544059045B045C505F01C9
:4000C000048005110D2A0E011514160217011D901E0220082202241027802E022F293212378539083E053F8045AA4C404F14561057456010630A66206D546E056F15760295
:4001000081108B409310A504AF10B504C0D0C2F0C4F0CAF0CCD5CED2D0F0D220D82EE680EE40003802C0040207200C9A10FC1203141315021664170D18211AD81C9A240291
:4001400025C52698273A289829532A022B8C2C982D492E022FB630E0318032133330340F350F37403A223B203F4154095604580459045B045F018404861A88138A0C8B0156
:400180008F029304940B961498079A18A220AA20B220B304B41EB502B601B701BA20BE44D602D724D804D904DB04DC52DD20DF01000401200501061207200B280D2A0E013B
:4001C00010081280154016401716180419841D291F28215424402504270A2F2932023708388039203D08462047085C405E025F2460046640678069016A546B4073018040B7
:400200008401914092019304950897829A129B149D019E20A203A52EA728AA10AC04C0B6C2F6C4EACA70CC41CE4CD6F0D894E201EE04540956045B045D105F010018018060
:4002400009800A541114128013801640170218501A01200221472320288029413208335139AA4040421849904A804B045040521053085D2A5E806108664169156AC06B80BA
:400280007180720294109A089E01C007C20FC40FCA09CC0FCE0FD007D20CD6F0D892E201EE048C109A089E018E089E018201080E09010F01140416091C051E0A28032A04A6
:4002C000320F340F370138285280580459045B045C515D405F01009001800440051409400A200E540F0111201511160118141C401D3C1F3E20022408260827022E402F28E5
:40030000352036083742380839A03A083C803E143F01452A4C014D3654405611658066187280830285028C048E04900291A1927493019504972899209B409D029E81A15052
:40034000A204A401A72AAA10AD01AF40C0E2C2F5C4D2CA70CCF0CEFCD0E0D230D870E240EC02EE0401840584080E09800B040D040F8010441160120914131501162418652F
:4003800019561A1A1B091D842440250A271029072B382D0430703108337F340F3780382039083A023F4154095604580459045B045C205D205F01842E865188248A488B07AC
:4003C0008C04950198199A229C709F04AF08B104B302B407B501B678B708B880BA20C010C106C5D0C610C702C81AC9FFCAFFCBFFCDA0CF04D018D405D804D904DA04DB04AB
:40040000DC42DD44DF01E040E2C0E440E540E6C0E8C0EAC0ECC0EEC001600201032005100A020B080D2A161019201A021D121F012008218122842442260427022A802F2A58
:400440003180320435223604374038203E543F014180480849015018588059055C605D045F02658067808110860188848C208D4091A192549301972A99849A109B409D20B7
:40048000A178A409A502A680AD40B510C047C273C420CA78CCFACEF4D008D204D6FBD890E20AEA02011303AC04040549061A07860C070E181140140B15021614170D18134F
:4004C00019E51A0C1B1A3001321E3370350F37803A083B283E013F4054095604580459045B045C135D305F01800781CD8238848485CD8801898D8B408C848F80900491025D
:40050000930D945695129609976499109B609C849D4D9F80A060A1CDA480A604A80AA972AA10AB08AC04AD01AE80AF32B080B10FB27FB380B480B570B808BB22BE11BF0464
:40054000D602D724D804D904DB04DC31DD10DF0100920310058409060B010C040E14114012411328181019021B201D0C1F012008221123102504266C270429902A02300488
:40058000325135013724388039153A803C023D08402043085C205E415F0462206782684069606B5971407301861087409080919D92819304952096149A129B209DDB9F5381
:4005C000A001A182A308A404A508A648A880A920AF20B540C0AFC26DC40FCA0DCCEFCECFD6F0D894E202E408EE10847088298A568C1A8E21960498209A4FB001B206B4784A
:40060000B820BE01D440D804DB04DC03DD30DF010008018103080424058009800A940E241114182019901A141C041E6021082201230629402A253209335039A03B04408058
:4006400041444220432049094A04512052446128630166906710800487048C808E048F0191BD92809310965499409A919B509D999E409F02A004A180A20CA328A610A810B5
:40068000AA04C0EFC26FC406CA0FCC0FCE0ED00FD204D87EE006E440EC031208158017043304368839813D083F1042018104C4E0CCE0CEF0D010E2200620304034105180DE
:4006C0005B1060206508950196019710A680C020CC30D4A0D8C03C80810889019501960197109C709D08A580A680AE20B710CE20E620E8108440960197109C60A440A58099
:40070000A680AC10E610EE400402C00401010740510152805D10638065208F409002C00CD405D604D803E20806808D209002910195129D20A680A740C004E00882809101FA
:4007400095129A80A680A740A801802084408609960197109C20A440A580A680E250E660061026805180570859086608830886108D089A08A180A680AD80AF10C020C82060
:40078000D460D640D880E040E680EA10EE4012801380161079017C018510878091019512A680A740C40EDE0300010740500856105B025E806004834084088C048F4094012A
:4007C0009A109B02A240A740AB02AD01AE40C00CD406D606D802E208E402002F0A250C0A103F1A371C0A00FD013F03C010550000041D0000001D0000010000006000001026
:40080000560D0910071D38000A0010008402000D041D8000840200048001040284020008000F00107F00800020000002000040042403100006BECDDF3FFFFFFF2200F00872
:40084000040000000000022404040404000000010000C00040011011C00100114001400100000000000000000000000000000000003800C0042100D8010200980713386481
:40088000049880020AFC100356980902849A0000600200008400000080000400849A000080E07F0F000080130800000A000041003605400002BEFD0C1FFFFFFF2200F00814
:4008C000040000000000022804040404133300010000C00040011011C00100114001400100000000000000000000000000000000004D0000134D6400214DD8003800C0406E
:40090000980002200202980D980202389A4D00009A00000000020034FC110302020D0040E000130F0F40003000002208000000102603500004BEFDC02FFFFFFF2200F0086F
:40094000040000004000000004040404222200010000C00040011011C001001140014001000000000000000000000000000000001A00000018000020824D0000339144023D
:400980001802020DC18238389C4D03001A4D0000000D00401800024002821834004D0000000F0F40E030138000002802000000443601200004CEFB0D1FFFFFFF2200F0086E
:4009C000040000004000000004040404131100010000C00040011011C0010011400140010000000000000000000000000000000002FCFC009C000000200000200000000032
:400A000000000000010002FCFD009D000000000002FCFC009C000000010002FCFD009D00000000000200000F0D0000000000000000010000000200000003000000000000CA
:400A40000000000000000000000000000000000000000000000000000000000000000000000000000000000000000000000000000000000000000000000000000000000076
:400A80000000000000000000000000000000000000000000000000000000000000000000000000000000000000000000000000000000000000000000000000000000000036
:400AC00000000000000000000000000000000000000000000000000000000000000000000000000000000000000000000000000000000000000000000000000000000000F6
:400B000000000000000000000000000000000000000000000000000000000000000000000000000000000000000000000000000000000000000000000000000000000000B5
:0200000490006A
:0400000000004005B7
:0200000490105A
:04000000BC90ACAF55
:0200000490303A
:02000000B03816
:0200000490402A
:4000000000000000000000000000000000000000000000000000000000000000000000000000000000000000000000000000000000000000000000000000000000000000C0
:400040000000000000000000000000000000000000000000000000000000000000000000000000000000000000000000000000000000000000000000000000000000000080
:400080000000000000000000000000000000000000000000000000000000000000000000000000000000000000000000000000000000000000000000000000000000000040
:4000C0000000000000000000000000000000000000000000000000000000000000000000000000000000000000000000000000000000000000000000000000000000000000
:0200000490501A
:0C00000000012E12306900012E29E0A141
:00000001FF